{
  "contractName": "BlockhashRegistry",
  "abi": [
    {
      "inputs": [],
      "payable": false,
      "stateMutability": "nonpayable",
      "type": "constructor"
    },
    {
      "anonymous": false,
      "inputs": [
        {
          "indexed": true,
          "internalType": "uint256",
          "name": "blockNr",
          "type": "uint256"
        },
        {
          "indexed": true,
          "internalType": "bytes32",
          "name": "bhash",
          "type": "bytes32"
        }
      ],
      "name": "LogBlockhashAdded",
      "type": "event"
    },
    {
      "constant": true,
      "inputs": [
        {
          "internalType": "uint256",
          "name": "",
          "type": "uint256"
        }
      ],
      "name": "blockhashMapping",
      "outputs": [
        {
          "internalType": "bytes32",
          "name": "",
          "type": "bytes32"
        }
      ],
      "payable": false,
      "stateMutability": "view",
      "type": "function"
    },
    {
      "constant": true,
      "inputs": [
        {
          "internalType": "uint256",
          "name": "_startNumber",
          "type": "uint256"
        },
        {
          "internalType": "uint256",
          "name": "_numBlocks",
          "type": "uint256"
        }
      ],
      "name": "searchForAvailableBlock",
      "outputs": [
        {
          "internalType": "uint256",
          "name": "",
          "type": "uint256"
        }
      ],
      "payable": false,
      "stateMutability": "view",
      "type": "function"
    },
    {
      "constant": false,
      "inputs": [
        {
          "internalType": "uint256",
          "name": "_blockNumber",
          "type": "uint256"
        },
        {
          "internalType": "bytes[]",
          "name": "_blockheaders",
          "type": "bytes[]"
        }
      ],
      "name": "recreateBlockheaders",
      "outputs": [],
      "payable": false,
      "stateMutability": "nonpayable",
      "type": "function"
    },
    {
      "constant": false,
      "inputs": [
        {
          "internalType": "uint256",
          "name": "_blockNumber",
          "type": "uint256"
        }
      ],
      "name": "saveBlockNumber",
      "outputs": [],
      "payable": false,
      "stateMutability": "nonpayable",
      "type": "function"
    },
    {
      "constant": false,
      "inputs": [],
      "name": "snapshot",
      "outputs": [],
      "payable": false,
      "stateMutability": "nonpayable",
      "type": "function"
    },
    {
      "constant": true,
      "inputs": [
        {
          "internalType": "bytes",
          "name": "_data",
          "type": "bytes"
        },
        {
          "internalType": "uint256",
          "name": "_offset",
          "type": "uint256"
        }
      ],
      "name": "getRlpUint",
      "outputs": [
        {
          "internalType": "uint256",
          "name": "value",
          "type": "uint256"
        }
      ],
      "payable": false,
      "stateMutability": "pure",
      "type": "function"
    },
    {
      "constant": true,
      "inputs": [
        {
          "internalType": "bytes",
          "name": "_blockheader",
          "type": "bytes"
        }
      ],
      "name": "getParentAndBlockhash",
      "outputs": [
        {
          "internalType": "bytes32",
          "name": "parentHash",
          "type": "bytes32"
        },
        {
          "internalType": "bytes32",
          "name": "bhash",
          "type": "bytes32"
        },
        {
          "internalType": "uint256",
          "name": "blockNumber",
          "type": "uint256"
        }
      ],
      "payable": false,
      "stateMutability": "pure",
      "type": "function"
    },
    {
      "constant": true,
      "inputs": [
        {
          "internalType": "bytes[]",
          "name": "_blockheaders",
          "type": "bytes[]"
        },
        {
          "internalType": "bytes32",
          "name": "_bHash",
          "type": "bytes32"
        },
        {
          "internalType": "uint256",
          "name": "_blockNumber",
          "type": "uint256"
        }
      ],
      "name": "reCalculateBlockheaders",
      "outputs": [
        {
          "internalType": "bytes32",
          "name": "bhash",
          "type": "bytes32"
        }
      ],
      "payable": false,
      "stateMutability": "view",
      "type": "function"
    }
  ],
  "bytecode": "0x60806040523480156200001157600080fd5b50620000226200002860201b60201c565b62000209565b6200003c600143036200003e60201b60201c565b565b6000801b600080838152602001908152602001600020541462000098576040517f08c379a00000000000000000000000000000000000000000000000000000000081526004016200008f90620001d6565b60405180910390fd5b6000814090506000801b811415620000e7576040517f08c379a0000000000000000000000000000000000000000000000000000000008152600401620000de90620001b4565b60405180910390fd5b806000808481526020019081526020016000208190555080827fa026fbef6faa1c5be3eb7cb2223ce263421a9d0136f4b11b1a3afcaacea984f360405160405180910390a35050565b60006200013f601383620001f8565b91507f626c6f636b206e6f7420617661696c61626c65000000000000000000000000006000830152602082019050919050565b600062000181601483620001f8565b91507f626c6f636b20616c72656164792073746f7265640000000000000000000000006000830152602082019050919050565b60006020820190508181036000830152620001cf8162000130565b9050919050565b60006020820190508181036000830152620001f18162000172565b9050919050565b600082825260208201905092915050565b61146780620002196000396000f3fe608060405234801561001057600080fd5b50600436106100885760003560e01c80639711715a1161005b5780639711715a14610127578063b1ff0d4b14610131578063df8baf4714610161578063e877b8731461019157610088565b806341313f8b1461008d5780635d5cbe09146100a95780636305332b146100db57806389daebbb1461010b575b600080fd5b6100a760048036036100a29190810190610c1f565b6101c1565b005b6100c360048036036100be9190810190610b8a565b6102ad565b6040516100d293929190611103565b60405180910390f35b6100f560048036036100f09190810190610c9c565b610465565b60405161010291906112fa565b60405180910390f35b61012560048036036101209190810190610c48565b610503565b005b61012f610746565b005b61014b60048036036101469190810190610b23565b610754565b60405161015891906110e8565b60405180910390f35b61017b60048036036101769190810190610bcb565b6108d0565b60405161018891906112fa565b60405180910390f35b6101ab60048036036101a69190810190610c1f565b6109c5565b6040516101b891906110e8565b60405180910390f35b6000801b6000808381526020019081526020016000205414610218576040517f08c379a000000000000000000000000000000000000000000000000000000000815260040161020f906111fa565b60405180910390fd5b6000814090506000801b811415610264576040517f08c379a000000000000000000000000000000000000000000000000000000000815260040161025b9061117a565b60405180910390fd5b806000808481526020019081526020016000208190555080827fa026fbef6faa1c5be3eb7cb2223ce263421a9d0136f4b11b1a3afcaacea984f360405160405180910390a35050565b600080600080846000815181106102c057fe5b602001015160f81c60f81b60f81c905060f78160ff1611610316576040517f08c379a000000000000000000000000000000000000000000000000000000000815260040161030d9061121a565b60405180910390fd5b6000600260f783030160ff1690508551602082011061036a576040517f08c379a0000000000000000000000000000000000000000000000000000000008152600401610361906112da565b60405180910390fd5b8060208701015194506000801b8514156103b9576040517f08c379a00000000000000000000000000000000000000000000000000000000081526004016103b09061127a565b60405180910390fd5b858051906020012093506101bc8101905060008682815181106103d857fe5b602001015160f81c60f81b60f81c905060a18160ff161061042e576040517f08c379a0000000000000000000000000000000000000000000000000000000008152600401610425906111da565b60405180910390fd5b60808160ff16106104455760016080820301610448565b60015b60ff168201915061045987836108d0565b93505050509193909250565b6000808284019050438111158061047b57508381105b6104ba576040517f08c379a00000000000000000000000000000000000000000000000000000000081526004016104b19061115a565b60405180910390fd5b60008490505b8181116104fa576000801b60008083815260200190815260200160002054146104ed5780925050506104fd565b80806001019150506104c0565b50505b92915050565b80518211610546576040517f08c379a000000000000000000000000000000000000000000000000000000000815260040161053d906111ba565b60405180910390fd5b438210610588576040517f08c379a000000000000000000000000000000000000000000000000000000000815260040161057f9061119a565b60405180910390fd5b60008151116105cc576040517f08c379a00000000000000000000000000000000000000000000000000000000081526004016105c39061129a565b60405180910390fd5b60008151830390506000801b600080838152602001908152602001600020541461062b576040517f08c379a0000000000000000000000000000000000000000000000000000000008152600401610622906111fa565b60405180910390fd5b60008060008581526020019081526020016000205490506000801b811415610688576040517f08c379a000000000000000000000000000000000000000000000000000000000815260040161067f9061125a565b60405180910390fd5b61010043038211156106a45761069d826101c1565b5050610742565b60006106b1848387610754565b90506000801b8114156106f9576040517f08c379a00000000000000000000000000000000000000000000000000000000081526004016106f09061113a565b60405180910390fd5b806000808581526020019081526020016000208190555080837fa026fbef6faa1c5be3eb7cb2223ce263421a9d0136f4b11b1a3afcaacea984f360405160405180910390a35050505b5050565b610752600143036101c1565b565b600080845111610799576040517f08c379a00000000000000000000000000000000000000000000000000000000081526004016107909061129a565b60405180910390fd5b6000801b8314156107df576040517f08c379a00000000000000000000000000000000000000000000000000000000081526004016107d6906112ba565b60405180910390fd5b600083905060008060001b905060008060001b90506000809050600086905060008090505b89518110156108bf576108298a828151811061081c57fe5b60200260200101516102ad565b809550819650829750505050858414158061084657506000801b85145b806108515750818314155b15610867576000801b96505050505050506108c9565b6000610100431161087a5761010061087c565b435b905083610100820310156108a557834085146108a4576000801b9750505050505050506108c9565b5b859650828060019003935050508080600101915050610804565b5084955050505050505b9392505050565b6000808383815181106108df57fe5b602001015160f81c60f81b60f81c905060a18160ff1610610935576040517f08c379a000000000000000000000000000000000000000000000000000000000815260040161092c9061123a565b60405180910390fd5b60808160ff16101561094d578060ff169150506109bf565b60006080820360ff1690506000602185019050855182860111156109a6576040517f08c379a000000000000000000000000000000000000000000000000000000000815260040161099d9061121a565b60405180910390fd5b6000805280860151826020035260005193508393505050505b92915050565b60006020528060005260406000206000915090505481565b600082601f8301126109ee57600080fd5b8135610a016109fc82611342565b611315565b9150818183526020840193506020810190508360005b83811015610a475781358601610a2d8882610a66565b845260208401935060208301925050600181019050610a17565b5050505092915050565b600081359050610a60816113f6565b92915050565b600082601f830112610a7757600080fd5b8135610a8a610a858261136a565b611315565b91508082526020830160208301858383011115610aa657600080fd5b610ab18382846113e7565b50505092915050565b600082601f830112610acb57600080fd5b8135610ade610ad982611396565b611315565b91508082526020830160208301858383011115610afa57600080fd5b610b058382846113e7565b50505092915050565b600081359050610b1d8161140d565b92915050565b600080600060608486031215610b3857600080fd5b600084013567ffffffffffffffff811115610b5257600080fd5b610b5e868287016109dd565b9350506020610b6f86828701610a51565b9250506040610b8086828701610b0e565b9150509250925092565b600060208284031215610b9c57600080fd5b600082013567ffffffffffffffff811115610bb657600080fd5b610bc284828501610aba565b91505092915050565b60008060408385031215610bde57600080fd5b600083013567ffffffffffffffff811115610bf857600080fd5b610c0485828601610aba565b9250506020610c1585828601610b0e565b9150509250929050565b600060208284031215610c3157600080fd5b6000610c3f84828501610b0e565b91505092915050565b60008060408385031215610c5b57600080fd5b6000610c6985828601610b0e565b925050602083013567ffffffffffffffff811115610c8657600080fd5b610c92858286016109dd565b9150509250929050565b60008060408385031215610caf57600080fd5b6000610cbd85828601610b0e565b9250506020610cce85828601610b0e565b9150509250929050565b610ce1816113d3565b82525050565b6000610cf4600f836113c2565b91507f696e76616c6964206865616465727300000000000000000000000000000000006000830152602082019050919050565b6000610d34600e836113c2565b91507f696e76616c6964207365617263680000000000000000000000000000000000006000830152602082019050919050565b6000610d746013836113c2565b91507f626c6f636b206e6f7420617661696c61626c65000000000000000000000000006000830152602082019050919050565b6000610db46028836113c2565b91507f63616e6e6f742072656372656174652061206e6f74207965742065786973746960008301527f6e6720626c6f636b0000000000000000000000000000000000000000000000006020830152604082019050919050565b6000610e1a601e836113c2565b91507f746f6f206d616e7920626c6f636b686561646572732070726f766964656400006000830152602082019050919050565b6000610e5a6035836113c2565b91507f6c69737473206f72206c6f6e67206669656c647320617265206e6f742073757060008301527f706f7274656420666f7220646966666963756c747900000000000000000000006020830152604082019050919050565b6000610ec06014836113c2565b91507f626c6f636b20616c72656164792073746f7265640000000000000000000000006000830152602082019050919050565b6000610f00600e836113c2565b91507f696e76616c6964206f66667365740000000000000000000000000000000000006000830152602082019050919050565b6000610f406026836113c2565b91507f6c69737473206f72206c6f6e67206669656c647320617265206e6f742073757060008301527f706f7274656400000000000000000000000000000000000000000000000000006020830152604082019050919050565b6000610fa6601c836113c2565b91507f706172656e74426c6f636b206973206e6f7420617661696c61626c65000000006000830152602082019050919050565b6000610fe66012836113c2565b91507f696e76616c696420706172656e744861736800000000000000000000000000006000830152602082019050919050565b60006110266018836113c2565b91507f6e6f20626c6f636b686561646572732070726f766964656400000000000000006000830152602082019050919050565b6000611066601a836113c2565b91507f696e76616c696420626c6f636b686173682070726f76696465640000000000006000830152602082019050919050565b60006110a6600e836113c2565b91507f696e76616c6964206c656e6774680000000000000000000000000000000000006000830152602082019050919050565b6110e2816113dd565b82525050565b60006020820190506110fd6000830184610cd8565b92915050565b60006060820190506111186000830186610cd8565b6111256020830185610cd8565b61113260408301846110d9565b949350505050565b6000602082019050818103600083015261115381610ce7565b9050919050565b6000602082019050818103600083015261117381610d27565b9050919050565b6000602082019050818103600083015261119381610d67565b9050919050565b600060208201905081810360008301526111b381610da7565b9050919050565b600060208201905081810360008301526111d381610e0d565b9050919050565b600060208201905081810360008301526111f381610e4d565b9050919050565b6000602082019050818103600083015261121381610eb3565b9050919050565b6000602082019050818103600083015261123381610ef3565b9050919050565b6000602082019050818103600083015261125381610f33565b9050919050565b6000602082019050818103600083015261127381610f99565b9050919050565b6000602082019050818103600083015261129381610fd9565b9050919050565b600060208201905081810360008301526112b381611019565b9050919050565b600060208201905081810360008301526112d381611059565b9050919050565b600060208201905081810360008301526112f381611099565b9050919050565b600060208201905061130f60008301846110d9565b92915050565b6000604051905081810181811067ffffffffffffffff8211171561133857600080fd5b8060405250919050565b600067ffffffffffffffff82111561135957600080fd5b602082029050602081019050919050565b600067ffffffffffffffff82111561138157600080fd5b601f19601f8301169050602081019050919050565b600067ffffffffffffffff8211156113ad57600080fd5b601f19601f8301169050602081019050919050565b600082825260208201905092915050565b6000819050919050565b6000819050919050565b82818337600083830152505050565b6113ff816113d3565b811461140a57600080fd5b50565b611416816113dd565b811461142157600080fd5b5056fea365627a7a72315820d68258740788945d278419b879f88ccddaaaa0aead041cde74c60d91798a71dc6c6578706572696d656e74616cf564736f6c63430005100040",
  "source": "/***********************************************************\r\n* This file is part of the Slock.it IoT Layer.             *\r\n* The Slock.it IoT Layer contains:                         *\r\n*   - USN (Universal Sharing Network)                      *\r\n*   - INCUBED (Trustless INcentivized remote Node Network) *\r\n************************************************************\r\n* Copyright (C) 2016 - 2018 Slock.it GmbH                  *\r\n* All Rights Reserved.                                     *\r\n************************************************************\r\n* You may use, distribute and modify this code under the   *\r\n* terms of the license contract you have concluded with    *\r\n* Slock.it GmbH.                                           *\r\n* For information about liability, maintenance etc. also   *\r\n* refer to the contract concluded with Slock.it GmbH.      *\r\n************************************************************\r\n* For more information, please refer to https://slock.it   *\r\n* For questions, please contact info@slock.it              *\r\n***********************************************************/\r\n\r\npragma solidity 0.5.16;\r\npragma experimental ABIEncoderV2;\r\n\r\n\r\n/// @title Registry for blockhashes\r\ncontract BlockhashRegistry {\r\n\r\n    /// a new blockhash and its number has been added to the contract\r\n    event LogBlockhashAdded(uint indexed blockNr, bytes32 indexed bhash);\r\n\r\n    /// maps the blocknumber to its blockhash\r\n    mapping(uint => bytes32) public blockhashMapping;\r\n\r\n    /// constructor, calls snapshot-function when contract get deployed as entry point\r\n    /// @dev cannot be deployed in a genesis block\r\n    constructor() public {\r\n        snapshot();\r\n    }\r\n\r\n    /// @notice searches for an already existing snapshot\r\n    /// @param _startNumber the blocknumber to start searching\r\n    /// @param _numBlocks the number of blocks to search for\r\n    /// @return the closes snapshot of found within the given range, 0 else\r\n    function searchForAvailableBlock(uint _startNumber, uint _numBlocks) external view returns (uint) {\r\n        uint target = _startNumber + _numBlocks;\r\n\r\n        require(target <= block.number || target < _startNumber, \"invalid search\");\r\n\r\n        for (uint i = _startNumber; i <= target; i++) {\r\n            if (blockhashMapping[i] != 0x0) {\r\n                return i;\r\n            }\r\n        }\r\n    }\r\n\r\n    /// @notice starts with a given blocknumber and its header and tries to recreate a (reverse) chain of blocks\r\n    /// @notice only usable when the given blocknumber is already in the smart contract\r\n    /// @notice it will be checked whether the provided chain is correct by using the reCalculateBlockheaders function\r\n    /// @notice if successfull the last blockhash of the header will be added to the smart contract\r\n    /// @param _blockNumber the block number to start recreation from\r\n    /// @param _blockheaders array with serialized blockheaders in reverse order (youngest -> oldest) => (e.g. 100, 99, 98)\r\n    /// @dev reverts when there is not parent block already stored in the contract\r\n    /// @dev reverts when the chain of headers is incorrect\r\n    /// @dev function is public due to the usage of a dynamic bytes array (not yet supported for external functions)\r\n    function recreateBlockheaders(uint _blockNumber, bytes[] memory _blockheaders) public {\r\n        /// we should never fail this assert, as this would mean that we were able to recreate a invalid blockchain\r\n        require(_blockNumber > _blockheaders.length, \"too many blockheaders provided\");\r\n        require(_blockNumber < block.number, \"cannot recreate a not yet existing block\");\r\n\r\n        require(_blockheaders.length > 0, \"no blockheaders provided\");\r\n\r\n        uint bnr = _blockNumber - _blockheaders.length;\r\n        require(blockhashMapping[bnr] == 0x0, \"block already stored\");\r\n\r\n        bytes32 currentBlockhash = blockhashMapping[_blockNumber];\r\n        require(currentBlockhash != 0x0, \"parentBlock is not available\");\r\n\r\n        /// if the blocknumber we want to store is within the last 256 blocks, we use the evm hash\r\n        if (bnr > block.number-256) {\r\n            saveBlockNumber(bnr);\r\n            return;\r\n        }\r\n\r\n        bytes32 calculatedHash = reCalculateBlockheaders(_blockheaders, currentBlockhash, _blockNumber);\r\n        require(calculatedHash != 0x0, \"invalid headers\");\r\n\r\n        blockhashMapping[bnr] = calculatedHash;\r\n        emit LogBlockhashAdded(bnr, calculatedHash);\r\n    }\r\n\r\n    /// @notice stores a certain blockhash to the state\r\n    /// @param _blockNumber the blocknumber to be stored\r\n    /// @dev reverts if the block can't be found inside the evm\r\n    function saveBlockNumber(uint _blockNumber) public {\r\n\r\n        require(blockhashMapping[_blockNumber] == 0x0, \"block already stored\");\r\n\r\n        bytes32 bHash = blockhash(_blockNumber);\r\n\r\n        require(bHash != 0x0, \"block not available\");\r\n\r\n        blockhashMapping[_blockNumber] = bHash;\r\n        emit LogBlockhashAdded(_blockNumber, bHash);\r\n    }\r\n\r\n    /// @notice stores the currentBlock-1 in the smart contract\r\n    function snapshot() public {\r\n        /// blockhash cannot return the current block, so we use the previous block\r\n        saveBlockNumber(block.number-1);\r\n    }\r\n\r\n    /// @notice returns the value from rlp encoded data.\r\n    ///         This function is limited to only value up to 32 bytes length!\r\n    /// @param _data rlp encoded data\r\n    /// @param _offset the offset\r\n    /// @return the value\r\n    function getRlpUint(bytes memory _data, uint _offset) public pure returns (uint value) {\r\n        /// get the byte at offset to figure out the length of the value\r\n        uint8 c = uint8(_data[_offset]);\r\n\r\n        /// we will not accept values above 0xa0, since this would mean we either have a list\r\n        /// or we have a value with a length greater 32 bytes\r\n        /// for the use cases (getting the blockNumber or difficulty) we can accept these limits.\r\n        require(c < 0xa1, \"lists or long fields are not supported\");\r\n        if (c < 0x80)  // single byte-item\r\n            return uint(c); // value = byte\r\n\r\n        // length of the value\r\n        uint len = c - 0x80;\r\n        // we skip the first 32 bytes since they contain the legth and add 1 because this byte contains the length of the value.\r\n        uint dataOffset = _offset + 33;\r\n\r\n        /// check the range\r\n        require(_offset + len <= _data.length, \"invalid offset\");\r\n\r\n        /// we are using assembly because we need to get the value of the next `len` bytes\r\n        /// This is done by copying the bytes in the \"scratch space\" so we can take the first 32 bytes as value afterwards.\r\n        // solium-disable-next-line security/no-inline-assembly\r\n        assembly { // solhint-disable-line no-inline-assembly\r\n            mstore(0x0, 0) // clean memory in the \"scratch space\"\r\n            mstore(\r\n                sub (0x20, len), // we move the position so the first bytes from rlp are the last bytes within the 32 bytes\r\n                mload(\r\n                    add ( _data, dataOffset ) // load the data from rlp-data\r\n                )\r\n            )\r\n            value:=mload(0x0)\r\n        }\r\n        return value;\r\n    }\r\n\r\n    /// @notice returns the blockhash and the parent blockhash from the provided blockheader\r\n    /// @param _blockheader a serialized (rlp-encoded) blockheader\r\n    /// @return the parent blockhash and the keccak256 of the provided blockheader (= the corresponding blockhash)\r\n    function getParentAndBlockhash(bytes memory _blockheader) public pure returns (bytes32 parentHash, bytes32 bhash, uint blockNumber) {\r\n\r\n        /// we need the 1st byte of the blockheader to calculate the position of the parentHash\r\n        uint8 first = uint8(_blockheader[0]);\r\n\r\n        /// calculates the offset\r\n        /// by using the 1st byte (usually f9) and substracting f7 to get the start point of the parentHash information\r\n        require(first > 0xf7, \"invalid offset\");\r\n\r\n        /// we also have to add \"2\" = 1 byte to it to skip the length-information\r\n        uint offset = first - 0xf7 + 2;\r\n        require(offset+32 < _blockheader.length, \"invalid length\");\r\n\r\n        /// we are using assembly because it's the most efficent way to access the parent blockhash within the rlp-encoded blockheader\r\n        // solium-disable-next-line security/no-inline-assembly\r\n        assembly { // solhint-disable-line no-inline-assembly\r\n            // we load the provided blockheader\r\n            // then we add 0x20 (32 bytes) to get to the start of the blockheader\r\n            // then we add the offset we calculated\r\n            // and load it to the parentHash variable\r\n            parentHash :=mload(\r\n                add(\r\n                    add(\r\n                        _blockheader, 0x20\r\n                    ), offset)\r\n            )\r\n        }\r\n\r\n        // verify parentHash\r\n        require(parentHash != 0x0, \"invalid parentHash\");\r\n        bhash = keccak256(_blockheader);\r\n\r\n        // get the blockNumber\r\n        // we set the offset to the difficulty field which is fixed since all fields between them have a fixed length.\r\n        offset += 444;\r\n\r\n        // we get the first byte for the difficulty field ( which is a field with a dynamic length)\r\n        // and calculate the length, because the next field is the blockNumber\r\n        uint8 c = uint8(_blockheader[offset]);\r\n        require(c < 0xa1, \"lists or long fields are not supported for difficulty\");\r\n        offset += c < 0x80 ? 1 : (c - 0x80 + 1);\r\n\r\n        // we fetch the blockNumber from the calculated offset\r\n        blockNumber = getRlpUint(_blockheader, offset);\r\n    }\r\n\r\n    /// @notice starts with a given blockhash and its header and tries to recreate a (reverse) chain of blocks\r\n    /// @notice the array of the blockheaders have to be in reverse order (e.g. [100,99,98,97])\r\n    /// @param _blockheaders array with serialized blockheaders in reverse order, i.e. from youngest to oldest\r\n    /// @param _bHash blockhash of the 1st element of the _blockheaders-array\r\n    /// @param _blockNumber blocknumber of the 1st element of the _blockheaders-array. This is only needed to verify the blockheader\r\n    /// @return 0x0 if the functions detects a wrong chaining of blocks, blockhash of the last element of the array otherwhise\r\n    function reCalculateBlockheaders(bytes[] memory _blockheaders, bytes32 _bHash, uint _blockNumber) public view returns (bytes32 bhash) {\r\n\r\n        require(_blockheaders.length > 0, \"no blockheaders provided\");\r\n        require(_bHash != 0x0, \"invalid blockhash provided\");\r\n        bytes32 currentBlockhash = _bHash;\r\n        bytes32 calcParent = 0x0;\r\n        bytes32 calcBlockhash = 0x0;\r\n        uint calcBlockNumber = 0;\r\n        uint currentBlockNumber = _blockNumber;\r\n\r\n        /// save to use for up to 200 blocks, exponential increase of gas-usage afterwards\r\n        for (uint i = 0; i < _blockheaders.length; i++) {\r\n            /// we alway need to verify the blockHash and parentHash\r\n            /// but in addition we also verify the blockNumber.\r\n            /// This is just safety-check in case of detected hash collision which makes it almost impossible\r\n            /// to add an invalid header which might create the correct hash.\r\n            (calcParent, calcBlockhash, calcBlockNumber) = getParentAndBlockhash(_blockheaders[i]);\r\n            if (calcBlockhash != currentBlockhash || calcParent == 0x0 || calcBlockNumber != currentBlockNumber) {\r\n                return 0x0;\r\n            }\r\n\r\n            uint currentBlock = block.number > 256 ? block.number : 256;\r\n\r\n            if (currentBlock - 256 < calcBlockNumber) {\r\n                if (calcBlockhash != blockhash(calcBlockNumber)) {\r\n                    return 0x0;\r\n                }\r\n            }\r\n            currentBlockhash = calcParent;\r\n            currentBlockNumber--;\r\n        }\r\n\r\n        return currentBlockhash;\r\n    }\r\n}",
  "sourcePath": "C:\\Users\\markm\\Documents\\in3_stake_app\\src\\contracts\\BlockhashRegistry.sol",
  "compiler": {
    "name": "solc",
    "version": "0.5.16+commit.9c3226ce.Emscripten.clang"
  },
  "schemaVersion": "3.2.3",
  "updatedAt": "2020-10-29T22:06:54.457Z",
  "devdoc": {
    "methods": {
      "constructor": {
        "details": "cannot be deployed in a genesis block"
      },
      "getParentAndBlockhash(bytes)": {
        "params": {
          "_blockheader": "a serialized (rlp-encoded) blockheader"
        },
        "return": "the parent blockhash and the keccak256 of the provided blockheader (= the corresponding blockhash)"
      },
      "getRlpUint(bytes,uint256)": {
        "params": {
          "_data": "rlp encoded data",
          "_offset": "the offset"
        },
        "return": "the value"
      },
      "reCalculateBlockheaders(bytes[],bytes32,uint256)": {
        "params": {
          "_bHash": "blockhash of the 1st element of the _blockheaders-array",
          "_blockNumber": "blocknumber of the 1st element of the _blockheaders-array. This is only needed to verify the blockheader",
          "_blockheaders": "array with serialized blockheaders in reverse order, i.e. from youngest to oldest"
        },
        "return": "0x0 if the functions detects a wrong chaining of blocks, blockhash of the last element of the array otherwhise"
      },
      "recreateBlockheaders(uint256,bytes[])": {
        "details": "reverts when there is not parent block already stored in the contractreverts when the chain of headers is incorrectfunction is public due to the usage of a dynamic bytes array (not yet supported for external functions)",
        "params": {
          "_blockNumber": "the block number to start recreation from",
          "_blockheaders": "array with serialized blockheaders in reverse order (youngest -> oldest) => (e.g. 100, 99, 98)"
        }
      },
      "saveBlockNumber(uint256)": {
        "details": "reverts if the block can't be found inside the evm",
        "params": {
          "_blockNumber": "the blocknumber to be stored"
        }
      },
      "searchForAvailableBlock(uint256,uint256)": {
        "params": {
          "_numBlocks": "the number of blocks to search for",
          "_startNumber": "the blocknumber to start searching"
        },
        "return": "the closes snapshot of found within the given range, 0 else"
      }
    },
    "title": "Registry for blockhashes"
  },
  "userdoc": {
    "methods": {
      "constructor": "constructor, calls snapshot-function when contract get deployed as entry point",
      "getParentAndBlockhash(bytes)": {
        "notice": "returns the blockhash and the parent blockhash from the provided blockheader"
      },
      "getRlpUint(bytes,uint256)": {
        "notice": "returns the value from rlp encoded data.         This function is limited to only value up to 32 bytes length!"
      },
      "reCalculateBlockheaders(bytes[],bytes32,uint256)": {
        "notice": "starts with a given blockhash and its header and tries to recreate a (reverse) chain of blocksthe array of the blockheaders have to be in reverse order (e.g. [100,99,98,97])"
      },
      "recreateBlockheaders(uint256,bytes[])": {
        "notice": "starts with a given blocknumber and its header and tries to recreate a (reverse) chain of blocksonly usable when the given blocknumber is already in the smart contractit will be checked whether the provided chain is correct by using the reCalculateBlockheaders functionif successfull the last blockhash of the header will be added to the smart contract"
      },
      "saveBlockNumber(uint256)": {
        "notice": "stores a certain blockhash to the state"
      },
      "searchForAvailableBlock(uint256,uint256)": {
        "notice": "searches for an already existing snapshot"
      },
      "snapshot()": {
        "notice": "stores the currentBlock-1 in the smart contract"
      }
    }
  }
}