{
  "contractName": "NodeRegistryLogic",
  "abi": [
    {
      "inputs": [
        {
          "internalType": "contract BlockhashRegistry",
          "name": "_blockRegistry",
          "type": "address"
        },
        {
          "internalType": "contract NodeRegistryData",
          "name": "_nodeRegistryData",
          "type": "address"
        },
        {
          "internalType": "uint256",
          "name": "_minDeposit",
          "type": "uint256"
        }
      ],
      "payable": false,
      "stateMutability": "nonpayable",
      "type": "constructor"
    },
    {
      "anonymous": false,
      "inputs": [
        {
          "indexed": false,
          "internalType": "address",
          "name": "signer",
          "type": "address"
        },
        {
          "indexed": false,
          "internalType": "address",
          "name": "owner",
          "type": "address"
        },
        {
          "indexed": false,
          "internalType": "uint256",
          "name": "deposit",
          "type": "uint256"
        },
        {
          "indexed": false,
          "internalType": "address",
          "name": "erc20Token",
          "type": "address"
        }
      ],
      "name": "LogDepositReturned",
      "type": "event"
    },
    {
      "anonymous": false,
      "inputs": [
        {
          "indexed": false,
          "internalType": "address",
          "name": "newPendingContract",
          "type": "address"
        }
      ],
      "name": "LogNewPendingContract",
      "type": "event"
    },
    {
      "anonymous": false,
      "inputs": [
        {
          "indexed": false,
          "internalType": "address",
          "name": "signer",
          "type": "address"
        }
      ],
      "name": "LogNodeConvicted",
      "type": "event"
    },
    {
      "anonymous": false,
      "inputs": [
        {
          "indexed": false,
          "internalType": "string",
          "name": "url",
          "type": "string"
        },
        {
          "indexed": false,
          "internalType": "uint192",
          "name": "props",
          "type": "uint192"
        },
        {
          "indexed": false,
          "internalType": "address",
          "name": "signer",
          "type": "address"
        },
        {
          "indexed": false,
          "internalType": "uint256",
          "name": "deposit",
          "type": "uint256"
        }
      ],
      "name": "LogNodeRegistered",
      "type": "event"
    },
    {
      "anonymous": false,
      "inputs": [
        {
          "indexed": false,
          "internalType": "string",
          "name": "url",
          "type": "string"
        },
        {
          "indexed": false,
          "internalType": "address",
          "name": "signer",
          "type": "address"
        }
      ],
      "name": "LogNodeRemoved",
      "type": "event"
    },
    {
      "anonymous": false,
      "inputs": [
        {
          "indexed": false,
          "internalType": "string",
          "name": "url",
          "type": "string"
        },
        {
          "indexed": false,
          "internalType": "uint192",
          "name": "props",
          "type": "uint192"
        },
        {
          "indexed": false,
          "internalType": "address",
          "name": "signer",
          "type": "address"
        },
        {
          "indexed": false,
          "internalType": "uint256",
          "name": "deposit",
          "type": "uint256"
        }
      ],
      "name": "LogNodeUpdated",
      "type": "event"
    },
    {
      "anonymous": false,
      "inputs": [
        {
          "indexed": false,
          "internalType": "address",
          "name": "signer",
          "type": "address"
        },
        {
          "indexed": false,
          "internalType": "address",
          "name": "oldOwner",
          "type": "address"
        },
        {
          "indexed": false,
          "internalType": "address",
          "name": "newOwner",
          "type": "address"
        }
      ],
      "name": "LogOwnershipChanged",
      "type": "event"
    },
    {
      "constant": true,
      "inputs": [],
      "name": "VERSION",
      "outputs": [
        {
          "internalType": "uint256",
          "name": "",
          "type": "uint256"
        }
      ],
      "payable": false,
      "stateMutability": "view",
      "type": "function"
    },
    {
      "constant": true,
      "inputs": [],
      "name": "adminKey",
      "outputs": [
        {
          "internalType": "address",
          "name": "",
          "type": "address"
        }
      ],
      "payable": false,
      "stateMutability": "view",
      "type": "function"
    },
    {
      "constant": true,
      "inputs": [],
      "name": "blockRegistry",
      "outputs": [
        {
          "internalType": "contract BlockhashRegistry",
          "name": "",
          "type": "address"
        }
      ],
      "payable": false,
      "stateMutability": "view",
      "type": "function"
    },
    {
      "constant": true,
      "inputs": [],
      "name": "maxDepositFirstYear",
      "outputs": [
        {
          "internalType": "uint256",
          "name": "",
          "type": "uint256"
        }
      ],
      "payable": false,
      "stateMutability": "view",
      "type": "function"
    },
    {
      "constant": true,
      "inputs": [],
      "name": "minDeposit",
      "outputs": [
        {
          "internalType": "uint256",
          "name": "",
          "type": "uint256"
        }
      ],
      "payable": false,
      "stateMutability": "view",
      "type": "function"
    },
    {
      "constant": true,
      "inputs": [],
      "name": "nodeRegistryData",
      "outputs": [
        {
          "internalType": "contract NodeRegistryData",
          "name": "",
          "type": "address"
        }
      ],
      "payable": false,
      "stateMutability": "view",
      "type": "function"
    },
    {
      "constant": true,
      "inputs": [],
      "name": "pendingNewLogic",
      "outputs": [
        {
          "internalType": "address",
          "name": "",
          "type": "address"
        }
      ],
      "payable": false,
      "stateMutability": "view",
      "type": "function"
    },
    {
      "constant": true,
      "inputs": [],
      "name": "timestampAdminKeyActive",
      "outputs": [
        {
          "internalType": "uint256",
          "name": "",
          "type": "uint256"
        }
      ],
      "payable": false,
      "stateMutability": "view",
      "type": "function"
    },
    {
      "constant": true,
      "inputs": [],
      "name": "updateTimeout",
      "outputs": [
        {
          "internalType": "uint256",
          "name": "",
          "type": "uint256"
        }
      ],
      "payable": false,
      "stateMutability": "view",
      "type": "function"
    },
    {
      "constant": false,
      "inputs": [],
      "name": "activateNewLogic",
      "outputs": [],
      "payable": false,
      "stateMutability": "nonpayable",
      "type": "function"
    },
    {
      "constant": false,
      "inputs": [
        {
          "internalType": "address",
          "name": "_signer",
          "type": "address"
        }
      ],
      "name": "adminRemoveNodeFromRegistry",
      "outputs": [],
      "payable": false,
      "stateMutability": "nonpayable",
      "type": "function"
    },
    {
      "constant": false,
      "inputs": [
        {
          "internalType": "address",
          "name": "_newLogic",
          "type": "address"
        }
      ],
      "name": "adminUpdateLogic",
      "outputs": [],
      "payable": false,
      "stateMutability": "nonpayable",
      "type": "function"
    },
    {
      "constant": false,
      "inputs": [
        {
          "internalType": "bytes32",
          "name": "_hash",
          "type": "bytes32"
        }
      ],
      "name": "convict",
      "outputs": [],
      "payable": false,
      "stateMutability": "nonpayable",
      "type": "function"
    },
    {
      "constant": false,
      "inputs": [
        {
          "internalType": "string",
          "name": "_url",
          "type": "string"
        },
        {
          "internalType": "uint192",
          "name": "_props",
          "type": "uint192"
        },
        {
          "internalType": "uint64",
          "name": "_weight",
          "type": "uint64"
        },
        {
          "internalType": "uint256",
          "name": "_deposit",
          "type": "uint256"
        }
      ],
      "name": "registerNode",
      "outputs": [],
      "payable": false,
      "stateMutability": "nonpayable",
      "type": "function"
    },
    {
      "constant": false,
      "inputs": [
        {
          "internalType": "string",
          "name": "_url",
          "type": "string"
        },
        {
          "internalType": "uint192",
          "name": "_props",
          "type": "uint192"
        },
        {
          "internalType": "address",
          "name": "_signer",
          "type": "address"
        },
        {
          "internalType": "uint64",
          "name": "_weight",
          "type": "uint64"
        },
        {
          "internalType": "uint256",
          "name": "_depositAmount",
          "type": "uint256"
        },
        {
          "internalType": "uint8",
          "name": "_v",
          "type": "uint8"
        },
        {
          "internalType": "bytes32",
          "name": "_r",
          "type": "bytes32"
        },
        {
          "internalType": "bytes32",
          "name": "_s",
          "type": "bytes32"
        }
      ],
      "name": "registerNodeFor",
      "outputs": [],
      "payable": false,
      "stateMutability": "nonpayable",
      "type": "function"
    },
    {
      "constant": false,
      "inputs": [
        {
          "internalType": "address",
          "name": "_signer",
          "type": "address"
        }
      ],
      "name": "returnDeposit",
      "outputs": [],
      "payable": false,
      "stateMutability": "nonpayable",
      "type": "function"
    },
    {
      "constant": false,
      "inputs": [
        {
          "internalType": "address",
          "name": "_signer",
          "type": "address"
        },
        {
          "internalType": "bytes32",
          "name": "_blockhash",
          "type": "bytes32"
        },
        {
          "internalType": "uint256",
          "name": "_blockNumber",
          "type": "uint256"
        },
        {
          "internalType": "uint8",
          "name": "_v",
          "type": "uint8"
        },
        {
          "internalType": "bytes32",
          "name": "_r",
          "type": "bytes32"
        },
        {
          "internalType": "bytes32",
          "name": "_s",
          "type": "bytes32"
        }
      ],
      "name": "revealConvict",
      "outputs": [],
      "payable": false,
      "stateMutability": "nonpayable",
      "type": "function"
    },
    {
      "constant": false,
      "inputs": [
        {
          "internalType": "address",
          "name": "_signer",
          "type": "address"
        },
        {
          "internalType": "address",
          "name": "_newOwner",
          "type": "address"
        }
      ],
      "name": "transferOwnership",
      "outputs": [],
      "payable": false,
      "stateMutability": "nonpayable",
      "type": "function"
    },
    {
      "constant": false,
      "inputs": [
        {
          "internalType": "address",
          "name": "_signer",
          "type": "address"
        }
      ],
      "name": "unregisteringNode",
      "outputs": [],
      "payable": false,
      "stateMutability": "nonpayable",
      "type": "function"
    },
    {
      "constant": false,
      "inputs": [
        {
          "internalType": "address",
          "name": "_signer",
          "type": "address"
        },
        {
          "internalType": "string",
          "name": "_url",
          "type": "string"
        },
        {
          "internalType": "uint192",
          "name": "_props",
          "type": "uint192"
        },
        {
          "internalType": "uint64",
          "name": "_weight",
          "type": "uint64"
        },
        {
          "internalType": "uint256",
          "name": "_additionalDeposit",
          "type": "uint256"
        }
      ],
      "name": "updateNode",
      "outputs": [],
      "payable": false,
      "stateMutability": "nonpayable",
      "type": "function"
    },
    {
      "constant": true,
      "inputs": [],
      "name": "supportedToken",
      "outputs": [
        {
          "internalType": "contract DappToken",
          "name": "",
          "type": "address"
        }
      ],
      "payable": false,
      "stateMutability": "view",
      "type": "function"
    },
    {
      "constant": true,
      "inputs": [],
      "name": "totalNodes",
      "outputs": [
        {
          "internalType": "uint256",
          "name": "",
          "type": "uint256"
        }
      ],
      "payable": false,
      "stateMutability": "view",
      "type": "function"
    }
  ],
  "bytecode": "0x60806040523480156200001157600080fd5b506040516200544c3803806200544c83398181016040526200003791908101906200024e565b600073ffffffffffffffffffffffffffffffffffffffff168373ffffffffffffffffffffffffffffffffffffffff161415620000aa576040517f08c379a0000000000000000000000000000000000000000000000000000000008152600401620000a19062000370565b60405180910390fd5b826000806101000a81548173ffffffffffffffffffffffffffffffffffffffff021916908373ffffffffffffffffffffffffffffffffffffffff1602179055506301e13380420160028190555033600360006101000a81548173ffffffffffffffffffffffffffffffffffffffff021916908373ffffffffffffffffffffffffffffffffffffffff160217905550600073ffffffffffffffffffffffffffffffffffffffff168273ffffffffffffffffffffffffffffffffffffffff161415620001ab576040517f08c379a0000000000000000000000000000000000000000000000000000000008152600401620001a2906200034e565b60405180910390fd5b81600160006101000a81548173ffffffffffffffffffffffffffffffffffffffff021916908373ffffffffffffffffffffffffffffffffffffffff160217905550806007819055506007546107d00260068190555050505062000457565b6000815190506200021a8162000409565b92915050565b600081519050620002318162000423565b92915050565b60008151905062000248816200043d565b92915050565b6000806000606084860312156200026457600080fd5b6000620002748682870162000209565b9350506020620002878682870162000220565b92505060406200029a8682870162000237565b9150509250925092565b6000620002b360208362000392565b91507f6e6f206e6f6465526567697374727920616464726573732070726f76696465646000830152602082019050919050565b6000620002f560218362000392565b91507f6e6f20626c6f636b526567697374727920616464726573732070726f7669646560008301527f64000000000000000000000000000000000000000000000000000000000000006020830152604082019050919050565b600060208201905081810360008301526200036981620002a4565b9050919050565b600060208201905081810360008301526200038b81620002e6565b9050919050565b600082825260208201905092915050565b6000620003b082620003df565b9050919050565b6000620003c482620003a3565b9050919050565b6000620003d882620003a3565b9050919050565b600073ffffffffffffffffffffffffffffffffffffffff82169050919050565b6000819050919050565b6200041481620003b7565b81146200042057600080fd5b50565b6200042e81620003cb565b81146200043a57600080fd5b50565b6200044881620003ff565b81146200045457600080fd5b50565b614fe580620004676000396000f3fe608060405234801561001057600080fd5b50600436106101425760003560e01c80639822fdf2116100b8578063bdef93031161007c578063bdef930314610307578063c2db4dda14610323578063c64751bd1461033f578063d402353e1461035b578063ecf55ad514610377578063ffa1ad741461039557610142565b80639822fdf214610289578063aa89859314610293578063aee9ea46146102af578063afa099a3146102cd578063b474ec7a146102eb57610142565b80636d4354211161010a5780636d435421146101d9578063701ccdef146101f55780637d84f2b1146102135780638aeb927b1461022f5780638e7908b61461024d5780639592d4241461026b57610142565b80630ee0599c146101475780631b401f6514610165578063233044d01461018157806341b3d1851461019f57806363c099f7146101bd575b600080fd5b61014f6103b3565b60405161015c9190614756565b60405180910390f35b61017f600480360361017a91908101906135df565b61045a565b005b6101896108ae565b604051610196919061445b565b60405180910390f35b6101a76108d4565b6040516101b49190614bca565b60405180910390f35b6101d760048036036101d291908101906136cd565b6108da565b005b6101f360048036036101ee9190810190613608565b610e39565b005b6101fd611243565b60405161020a9190614bca565b60405180910390f35b61022d6004803603610228919081019061383f565b611249565b005b610237611459565b6040516102449190614bca565b60405180910390f35b61025561145f565b6040516102629190614771565b60405180910390f35b610273611485565b6040516102809190614bca565b60405180910390f35b61029161152c565b005b6102ad60048036036102a8919081019061390d565b611688565b005b6102b76116e1565b6040516102c49190614bca565b60405180910390f35b6102d56116e7565b6040516102e2919061445b565b60405180910390f35b610305600480360361030091908101906135df565b61170d565b005b610321600480360361031c91908101906135df565b611894565b005b61033d600480360361033891908101906135df565b611d22565b005b610359600480360361035491908101906137c4565b612167565b005b61037560048036036103709190810190613644565b6121f9565b005b61037f612c98565b60405161038c919061473b565b60405180910390f35b61039d612cbd565b6040516103aa9190614bca565b60405180910390f35b6000600160009054906101000a900473ffffffffffffffffffffffffffffffffffffffff1673ffffffffffffffffffffffffffffffffffffffff16630ee0599c6040518163ffffffff1660e01b815260040160206040518083038186803b15801561041d57600080fd5b505afa158015610431573d6000803e3d6000fd5b505050506040513d601f19601f820116820180604052506104559190810190613816565b905090565b61046261320d565b600160009054906101000a900473ffffffffffffffffffffffffffffffffffffffff1673ffffffffffffffffffffffffffffffffffffffff16635d7611b9836040518263ffffffff1660e01b81526004016104bd919061445b565b60a06040518083038186803b1580156104d557600080fd5b505afa1580156104e9573d6000803e3d6000fd5b505050506040513d601f19601f8201168201806040525061050d91908101906139ce565b90506001600381111561051c57fe5b816040015114610561576040517f08c379a000000000000000000000000000000000000000000000000000000000815260040161055890614aca565b60405180910390fd5b3373ffffffffffffffffffffffffffffffffffffffff16816020015173ffffffffffffffffffffffffffffffffffffffff16146105d3576040517f08c379a00000000000000000000000000000000000000000000000000000000081526004016105ca906148ea565b60405180910390fd5b6105db61325c565b600160009054906101000a900473ffffffffffffffffffffffffffffffffffffffff1673ffffffffffffffffffffffffffffffffffffffff166306a8ea8883608001516040518263ffffffff1660e01b815260040161063a9190614bca565b60006040518083038186803b15801561065257600080fd5b505afa158015610666573d6000803e3d6000fd5b505050506040513d6000823e3d601f19601f8201168201806040525061068f919081019061398d565b90508273ffffffffffffffffffffffffffffffffffffffff168160a0015173ffffffffffffffffffffffffffffffffffffffff1614610703576040517f08c379a00000000000000000000000000000000000000000000000000000000081526004016106fa9061490a565b60405180910390fd5b600160009054906101000a900473ffffffffffffffffffffffffffffffffffffffff1673ffffffffffffffffffffffffffffffffffffffff16631b401f65846040518263ffffffff1660e01b815260040161075e919061445b565b602060405180830381600087803b15801561077857600080fd5b505af115801561078c573d6000803e3d6000fd5b505050506040513d601f19601f820116820180604052506107b0919081019061375f565b50600160009054906101000a900473ffffffffffffffffffffffffffffffffffffffff1673ffffffffffffffffffffffffffffffffffffffff16636cea2d81846003808111156107fc57fe5b6040518363ffffffff1660e01b8152600401610819929190614689565b602060405180830381600087803b15801561083357600080fd5b505af1158015610847573d6000803e3d6000fd5b505050506040513d601f19601f8201168201806040525061086b919081019061375f565b507f78267f80e41fea0cce6d47208671d5c1d990b9fdaefd72a3989de95cde34bc628160000151846040516108a192919061484e565b60405180910390a1505050565b600360009054906101000a900473ffffffffffffffffffffffffffffffffffffffff1681565b60075481565b6108e261320d565b600160009054906101000a900473ffffffffffffffffffffffffffffffffffffffff1673ffffffffffffffffffffffffffffffffffffffff16635d7611b9886040518263ffffffff1660e01b815260040161093d919061445b565b60a06040518083038186803b15801561095557600080fd5b505afa158015610969573d6000803e3d6000fd5b505050506040513d601f19601f8201168201806040525061098d91908101906139ce565b90506001600381111561099c57fe5b8160400151146109e1576040517f08c379a00000000000000000000000000000000000000000000000000000000081526004016109d890614aca565b60405180910390fd5b3373ffffffffffffffffffffffffffffffffffffffff16816020015173ffffffffffffffffffffffffffffffffffffffff1614610a53576040517f08c379a0000000000000000000000000000000000000000000000000000000008152600401610a4a906148ea565b60405180910390fd5b610a5b61325c565b600160009054906101000a900473ffffffffffffffffffffffffffffffffffffffff1673ffffffffffffffffffffffffffffffffffffffff16630ce02d8f896040518263ffffffff1660e01b8152600401610ab6919061445b565b60006040518083038186803b158015610ace57600080fd5b505afa158015610ae2573d6000803e3d6000fd5b505050506040513d6000823e3d601f19601f82011682018060405250610b0b919081019061398d565b90508773ffffffffffffffffffffffffffffffffffffffff168160a0015173ffffffffffffffffffffffffffffffffffffffff1614610b7f576040517f08c379a0000000000000000000000000000000000000000000000000000000008152600401610b769061490a565b60405180910390fd5b600081602001519050610b9181612cc7565b6000841115610d35576000600160009054906101000a900473ffffffffffffffffffffffffffffffffffffffff1673ffffffffffffffffffffffffffffffffffffffff16630ee0599c6040518163ffffffff1660e01b815260040160206040518083038186803b158015610c0457600080fd5b505afa158015610c18573d6000803e3d6000fd5b505050506040513d601f19601f82011682018060405250610c3c9190810190613816565b90508073ffffffffffffffffffffffffffffffffffffffff166323b872dd33600160009054906101000a900473ffffffffffffffffffffffffffffffffffffffff16886040518463ffffffff1660e01b8152600401610c9d93929190614476565b602060405180830381600087803b158015610cb757600080fd5b505af1158015610ccb573d6000803e3d6000fd5b505050506040513d601f19601f82011682018060405250610cef919081019061375f565b610d2e576040517f08c379a0000000000000000000000000000000000000000000000000000000008152600401610d25906148ca565b60405180910390fd5b8482019150505b600160009054906101000a900473ffffffffffffffffffffffffffffffffffffffff1673ffffffffffffffffffffffffffffffffffffffff166363c099f78a8a8a8a8a876040518763ffffffff1660e01b8152600401610d9a96959493929190614604565b602060405180830381600087803b158015610db457600080fd5b505af1158015610dc8573d6000803e3d6000fd5b505050506040513d601f19601f82011682018060405250610dec919081019061375f565b507f9e0188ed368406809d657d164afbf5a01a67f62175294c19bf38e4741ca358368260000151878b84604051610e26949392919061487e565b60405180910390a1505050505050505050565b600073ffffffffffffffffffffffffffffffffffffffff168173ffffffffffffffffffffffffffffffffffffffff161415610ea9576040517f08c379a0000000000000000000000000000000000000000000000000000000008152600401610ea090614a6a565b60405180910390fd5b610eb161320d565b600160009054906101000a900473ffffffffffffffffffffffffffffffffffffffff1673ffffffffffffffffffffffffffffffffffffffff16635d7611b9846040518263ffffffff1660e01b8152600401610f0c919061445b565b60a06040518083038186803b158015610f2457600080fd5b505afa158015610f38573d6000803e3d6000fd5b505050506040513d601f19601f82011682018060405250610f5c91908101906139ce565b905060016003811115610f6b57fe5b816040015114610fb0576040517f08c379a0000000000000000000000000000000000000000000000000000000008152600401610fa790614aca565b60405180910390fd5b3373ffffffffffffffffffffffffffffffffffffffff16816020015173ffffffffffffffffffffffffffffffffffffffff1614611022576040517f08c379a0000000000000000000000000000000000000000000000000000000008152600401611019906148ea565b60405180910390fd5b61102a61325c565b600160009054906101000a900473ffffffffffffffffffffffffffffffffffffffff1673ffffffffffffffffffffffffffffffffffffffff166306a8ea8883608001516040518263ffffffff1660e01b81526004016110899190614bca565b60006040518083038186803b1580156110a157600080fd5b505afa1580156110b5573d6000803e3d6000fd5b505050506040513d6000823e3d601f19601f820116820180604052506110de919081019061398d565b90508373ffffffffffffffffffffffffffffffffffffffff168160a0015173ffffffffffffffffffffffffffffffffffffffff1614611152576040517f08c379a00000000000000000000000000000000000000000000000000000000081526004016111499061490a565b60405180910390fd5b600160009054906101000a900473ffffffffffffffffffffffffffffffffffffffff1673ffffffffffffffffffffffffffffffffffffffff16636d43542185856040518363ffffffff1660e01b81526004016111af9291906144ff565b602060405180830381600087803b1580156111c957600080fd5b505af11580156111dd573d6000803e3d6000fd5b505050506040513d601f19601f82011682018060405250611201919081019061375f565b507fc9c065a583ca07c50dabe212e03f5c8f67ac75a99544c771e7222650481ea35b84338560405161123593929190614528565b60405180910390a150505050565b60025481565b60606040518060400160405280601c81526020017f19457468657265756d205369676e6564204d6573736167653a0a333200000000815250905060008a8a8a893360405160200161129e95949392919061440f565b604051602081830303815290604052805190602001209050600082826040516020016112cb9291906143e7565b604051602081830303815290604052805190602001209050601b8660ff1614806112f85750601c8660ff16145b611337576040517f08c379a000000000000000000000000000000000000000000000000000000000815260040161132e9061492a565b60405180910390fd5b60006001828888886040516000815260200160405260405161135c94939291906146f6565b6020604051602081039080840390855afa15801561137e573d6000803e3d6000fd5b5050506020604051035190508073ffffffffffffffffffffffffffffffffffffffff168a73ffffffffffffffffffffffffffffffffffffffff16146113f8576040517f08c379a00000000000000000000000000000000000000000000000000000000081526004016113ef90614b8a565b60405180910390fd5b61144a8d8d8080601f016020809104026020016040519081016040528093929190818152602001838380828437600081840152601f19601f820116905080830192505050505050508c8c338c8e612d5e565b50505050505050505050505050565b60065481565b600160009054906101000a900473ffffffffffffffffffffffffffffffffffffffff1681565b6000600160009054906101000a900473ffffffffffffffffffffffffffffffffffffffff1673ffffffffffffffffffffffffffffffffffffffff16639592d4246040518163ffffffff1660e01b815260040160206040518083038186803b1580156114ef57600080fd5b505afa158015611503573d6000803e3d6000fd5b505050506040513d601f19601f8201168201806040525061152791908101906139f7565b905090565b60006004541415611572576040517f08c379a000000000000000000000000000000000000000000000000000000000815260040161156990614b2a565b60405180910390fd5b60045442116115b6576040517f08c379a00000000000000000000000000000000000000000000000000000000081526004016115ad90614b4a565b60405180910390fd5b600160009054906101000a900473ffffffffffffffffffffffffffffffffffffffff1673ffffffffffffffffffffffffffffffffffffffff1663912f137e600560009054906101000a900473ffffffffffffffffffffffffffffffffffffffff166040518263ffffffff1660e01b8152600401611633919061445b565b602060405180830381600087803b15801561164d57600080fd5b505af1158015611661573d6000803e3d6000fd5b505050506040513d601f19601f82011682018060405250611685919081019061375f565b50565b6116da85858080601f016020809104026020016040519081016040528093929190818152602001838380828437600081840152601f19601f820116905080830192505050505050508433338587612d5e565b5050505050565b60045481565b600560009054906101000a900473ffffffffffffffffffffffffffffffffffffffff1681565b600360009054906101000a900473ffffffffffffffffffffffffffffffffffffffff1673ffffffffffffffffffffffffffffffffffffffff163373ffffffffffffffffffffffffffffffffffffffff161461179d576040517f08c379a00000000000000000000000000000000000000000000000000000000081526004016117949061494a565b60405180910390fd5b600073ffffffffffffffffffffffffffffffffffffffff168173ffffffffffffffffffffffffffffffffffffffff16141561180d576040517f08c379a000000000000000000000000000000000000000000000000000000000815260040161180490614aaa565b60405180910390fd5b623df680420160048190555080600560006101000a81548173ffffffffffffffffffffffffffffffffffffffff021916908373ffffffffffffffffffffffffffffffffffffffff1602179055507f81999cf75d957cdfb35457e4d189c32a4cfe3fbd45d7a90cd14a5b368da15be581604051611889919061445b565b60405180910390a150565b61189c61320d565b600160009054906101000a900473ffffffffffffffffffffffffffffffffffffffff1673ffffffffffffffffffffffffffffffffffffffff16635d7611b9836040518263ffffffff1660e01b81526004016118f7919061445b565b60a06040518083038186803b15801561190f57600080fd5b505afa158015611923573d6000803e3d6000fd5b505050506040513d601f19601f8201168201806040525061194791908101906139ce565b90503373ffffffffffffffffffffffffffffffffffffffff16816020015173ffffffffffffffffffffffffffffffffffffffff16146119bb576040517f08c379a00000000000000000000000000000000000000000000000000000000081526004016119b290614a2a565b60405180910390fd5b6003808111156119c757fe5b816040015114611a0c576040517f08c379a0000000000000000000000000000000000000000000000000000000008152600401611a0390614aca565b60405180910390fd5b42816000015167ffffffffffffffff161115611a5d576040517f08c379a0000000000000000000000000000000000000000000000000000000008152600401611a54906149ea565b60405180910390fd5b6000816060015190506000826000019067ffffffffffffffff16908167ffffffffffffffff16815250506000826020019073ffffffffffffffffffffffffffffffffffffffff16908173ffffffffffffffffffffffffffffffffffffffff1681525050600082604001818152505060008260600181815250506000826080018181525050600160009054906101000a900473ffffffffffffffffffffffffffffffffffffffff1673ffffffffffffffffffffffffffffffffffffffff16633dd703a884846040518363ffffffff1660e01b8152600401611b3e929190614660565b602060405180830381600087803b158015611b5857600080fd5b505af1158015611b6c573d6000803e3d6000fd5b505050506040513d601f19601f82011682018060405250611b90919081019061375f565b50600160009054906101000a900473ffffffffffffffffffffffffffffffffffffffff1673ffffffffffffffffffffffffffffffffffffffff16633fafa91133836040518363ffffffff1660e01b8152600401611bee9291906144d6565b602060405180830381600087803b158015611c0857600080fd5b505af1158015611c1c573d6000803e3d6000fd5b505050506040513d601f19601f82011682018060405250611c40919081019061375f565b507f5bb19bc85bbfc7fab030191d7229d0ffd5d04970e8b45fb08ffa648d8d60512d833383600160009054906101000a900473ffffffffffffffffffffffffffffffffffffffff1673ffffffffffffffffffffffffffffffffffffffff16630ee0599c6040518163ffffffff1660e01b815260040160206040518083038186803b158015611ccd57600080fd5b505afa158015611ce1573d6000803e3d6000fd5b505050506040513d601f19601f82011682018060405250611d059190810190613816565b604051611d15949392919061455f565b60405180910390a1505050565b600360009054906101000a900473ffffffffffffffffffffffffffffffffffffffff1673ffffffffffffffffffffffffffffffffffffffff163373ffffffffffffffffffffffffffffffffffffffff1614611db2576040517f08c379a0000000000000000000000000000000000000000000000000000000008152600401611da99061494a565b60405180910390fd5b600254421115611df7576040517f08c379a0000000000000000000000000000000000000000000000000000000008152600401611dee9061498a565b60405180910390fd5b611dff61320d565b600160009054906101000a900473ffffffffffffffffffffffffffffffffffffffff1673ffffffffffffffffffffffffffffffffffffffff16635d7611b9836040518263ffffffff1660e01b8152600401611e5a919061445b565b60a06040518083038186803b158015611e7257600080fd5b505afa158015611e86573d6000803e3d6000fd5b505050506040513d601f19601f82011682018060405250611eaa91908101906139ce565b905060016003811115611eb957fe5b816040015114611efe576040517f08c379a0000000000000000000000000000000000000000000000000000000008152600401611ef590614aca565b60405180910390fd5b611f0661325c565b600160009054906101000a900473ffffffffffffffffffffffffffffffffffffffff1673ffffffffffffffffffffffffffffffffffffffff166306a8ea8883608001516040518263ffffffff1660e01b8152600401611f659190614bca565b60006040518083038186803b158015611f7d57600080fd5b505afa158015611f91573d6000803e3d6000fd5b505050506040513d6000823e3d601f19601f82011682018060405250611fba919081019061398d565b9050600160009054906101000a900473ffffffffffffffffffffffffffffffffffffffff1673ffffffffffffffffffffffffffffffffffffffff16631b401f65846040518263ffffffff1660e01b8152600401612017919061445b565b602060405180830381600087803b15801561203157600080fd5b505af1158015612045573d6000803e3d6000fd5b505050506040513d601f19601f82011682018060405250612069919081019061375f565b50600160009054906101000a900473ffffffffffffffffffffffffffffffffffffffff1673ffffffffffffffffffffffffffffffffffffffff16636cea2d81846003808111156120b557fe5b6040518363ffffffff1660e01b81526004016120d2929190614689565b602060405180830381600087803b1580156120ec57600080fd5b505af1158015612100573d6000803e3d6000fd5b505050506040513d601f19601f82011682018060405250612124919081019061375f565b507f78267f80e41fea0cce6d47208671d5c1d990b9fdaefd72a3989de95cde34bc6281600001518460405161215a92919061484e565b60405180910390a1505050565b600160009054906101000a900473ffffffffffffffffffffffffffffffffffffffff1673ffffffffffffffffffffffffffffffffffffffff16633026b65b82336040518363ffffffff1660e01b81526004016121c49291906146cd565b600060405180830381600087803b1580156121de57600080fd5b505af11580156121f2573d6000803e3d6000fd5b5050505050565b601b8360ff16148061220e5750601c8360ff16145b61224d576040517f08c379a000000000000000000000000000000000000000000000000000000000815260040161224490614baa565b60405180910390fd5b6000844090506000801b81141561230b576000809054906101000a900473ffffffffffffffffffffffffffffffffffffffff1673ffffffffffffffffffffffffffffffffffffffff1663e877b873866040518263ffffffff1660e01b81526004016122b89190614bca565b60206040518083038186803b1580156122d057600080fd5b505afa1580156122e4573d6000803e3d6000fd5b505050506040513d601f19601f8201168201806040525061230891908101906137ed565b90505b6000801b811415612351576040517f08c379a000000000000000000000000000000000000000000000000000000000815260040161234890614a0a565b60405180910390fd5b85811415612394576040517f08c379a000000000000000000000000000000000000000000000000000000000815260040161238b90614b0a565b60405180910390fd5b600086338686866040516020016123af95949392919061434b565b6040516020818303038152906040528051906020012090506000600160009054906101000a900473ffffffffffffffffffffffffffffffffffffffff1673ffffffffffffffffffffffffffffffffffffffff1663a82a265333846040518363ffffffff1660e01b81526004016124269291906144ad565b60206040518083038186803b15801561243e57600080fd5b505afa158015612452573d6000803e3d6000fd5b505050506040513d601f19601f8201168201806040525061247691908101906139f7565b905060008114156124bc576040517f08c379a00000000000000000000000000000000000000000000000000000000081526004016124b390614b6a565b60405180910390fd5b600281014311612501576040517f08c379a00000000000000000000000000000000000000000000000000000000081526004016124f8906149aa565b60405180910390fd5b8873ffffffffffffffffffffffffffffffffffffffff1660018989600160009054906101000a900473ffffffffffffffffffffffffffffffffffffffff1673ffffffffffffffffffffffffffffffffffffffff166304ef898d6040518163ffffffff1660e01b815260040160206040518083038186803b15801561258457600080fd5b505afa158015612598573d6000803e3d6000fd5b505050506040513d601f19601f820116820180604052506125bc91908101906137ed565b6040516020016125ce939291906143aa565b604051602081830303815290604052805190602001208888886040516000815260200160405260405161260494939291906146f6565b6020604051602081039080840390855afa158015612626573d6000803e3d6000fd5b5050506020604051035173ffffffffffffffffffffffffffffffffffffffff1614612686576040517f08c379a000000000000000000000000000000000000000000000000000000000815260040161267d90614a8a565b60405180910390fd5b61268e61320d565b600160009054906101000a900473ffffffffffffffffffffffffffffffffffffffff1673ffffffffffffffffffffffffffffffffffffffff16635d7611b98b6040518263ffffffff1660e01b81526004016126e9919061445b565b60a06040518083038186803b15801561270157600080fd5b505afa158015612715573d6000803e3d6000fd5b505050506040513d601f19601f8201168201806040525061273991908101906139ce565b90506001600381111561274857fe5b81604001511480612767575060038081111561276057fe5b8160400151145b6127a6576040517f08c379a000000000000000000000000000000000000000000000000000000000815260040161279d90614aca565b60405180910390fd5b6000809050600160038111156127b857fe5b82604001511415612ac1576127cb61325c565b600160009054906101000a900473ffffffffffffffffffffffffffffffffffffffff1673ffffffffffffffffffffffffffffffffffffffff16630ce02d8f8d6040518263ffffffff1660e01b8152600401612826919061445b565b60006040518083038186803b15801561283e57600080fd5b505afa158015612852573d6000803e3d6000fd5b505050506040513d6000823e3d601f19601f8201168201806040525061287b919081019061398d565b905080602001519150600160009054906101000a900473ffffffffffffffffffffffffffffffffffffffff1673ffffffffffffffffffffffffffffffffffffffff16637400d0738d60006040518363ffffffff1660e01b81526004016128e29291906145db565b602060405180830381600087803b1580156128fc57600080fd5b505af1158015612910573d6000803e3d6000fd5b505050506040513d601f19601f82011682018060405250612934919081019061375f565b50600160009054906101000a900473ffffffffffffffffffffffffffffffffffffffff1673ffffffffffffffffffffffffffffffffffffffff1663c2db4dda8d6040518263ffffffff1660e01b8152600401612990919061445b565b600060405180830381600087803b1580156129aa57600080fd5b505af11580156129be573d6000803e3d6000fd5b50505050600160009054906101000a900473ffffffffffffffffffffffffffffffffffffffff1673ffffffffffffffffffffffffffffffffffffffff16636cea2d818d60026003811115612a0e57fe5b6040518363ffffffff1660e01b8152600401612a2b929190614689565b602060405180830381600087803b158015612a4557600080fd5b505af1158015612a59573d6000803e3d6000fd5b505050506040513d601f19601f82011682018060405250612a7d919081019061375f565b507f78267f80e41fea0cce6d47208671d5c1d990b9fdaefd72a3989de95cde34bc6281600001518d604051612ab392919061484e565b60405180910390a150612b9a565b8160600151905060026003811115612ad557fe5b8260400181815250506000826060018181525050600160009054906101000a900473ffffffffffffffffffffffffffffffffffffffff1673ffffffffffffffffffffffffffffffffffffffff16633dd703a88c846040518363ffffffff1660e01b8152600401612b46929190614660565b602060405180830381600087803b158015612b6057600080fd5b505af1158015612b74573d6000803e3d6000fd5b505050506040513d601f19601f82011682018060405250612b98919081019061375f565b505b600160009054906101000a900473ffffffffffffffffffffffffffffffffffffffff1673ffffffffffffffffffffffffffffffffffffffff16633fafa9113360028481612be357fe5b046040518363ffffffff1660e01b8152600401612c019291906144d6565b602060405180830381600087803b158015612c1b57600080fd5b505af1158015612c2f573d6000803e3d6000fd5b505050506040513d601f19601f82011682018060405250612c53919081019061375f565b507f99cf870e2c7ee878455cc590c43877ba030304a8a5dd703bcfbd5c4822009f788b604051612c83919061445b565b60405180910390a15050505050505050505050565b6000809054906101000a900473ffffffffffffffffffffffffffffffffffffffff1681565b650b2fd2558df581565b600754811015612d0c576040517f08c379a0000000000000000000000000000000000000000000000000000000008152600401612d0390614a4a565b60405180910390fd5b600254421015612d5b576006548110612d5a576040517f08c379a0000000000000000000000000000000000000000000000000000000008152600401612d5190614aea565b60405180910390fd5b5b50565b612d6782612cc7565b6000600160009054906101000a900473ffffffffffffffffffffffffffffffffffffffff1673ffffffffffffffffffffffffffffffffffffffff16630ee0599c6040518163ffffffff1660e01b815260040160206040518083038186803b158015612dd157600080fd5b505afa158015612de5573d6000803e3d6000fd5b505050506040513d601f19601f82011682018060405250612e099190810190613816565b90508073ffffffffffffffffffffffffffffffffffffffff166323b872dd85600160009054906101000a900473ffffffffffffffffffffffffffffffffffffffff16866040518463ffffffff1660e01b8152600401612e6a939291906145a4565b602060405180830381600087803b158015612e8457600080fd5b505af1158015612e98573d6000803e3d6000fd5b505050506040513d601f19601f82011682018060405250612ebc919081019061375f565b612efb576040517f08c379a0000000000000000000000000000000000000000000000000000000008152600401612ef2906148ca565b60405180910390fd5b612f0361320d565b600160009054906101000a900473ffffffffffffffffffffffffffffffffffffffff1673ffffffffffffffffffffffffffffffffffffffff16635d7611b9876040518263ffffffff1660e01b8152600401612f5e919061445b565b60a06040518083038186803b158015612f7657600080fd5b505afa158015612f8a573d6000803e3d6000fd5b505050506040513d601f19601f82011682018060405250612fae91908101906139ce565b90506000888051906020012090506000600160009054906101000a900473ffffffffffffffffffffffffffffffffffffffff1673ffffffffffffffffffffffffffffffffffffffff1663de7dda74836040518263ffffffff1660e01b815260040161301991906146b2565b604080518083038186803b15801561303057600080fd5b505afa158015613044573d6000803e3d6000fd5b505050506040513d601f19601f820116820180604052506130689190810190613788565b50905080156130ac576040517f08c379a00000000000000000000000000000000000000000000000000000000081526004016130a3906149ca565b60405180910390fd5b600060038111156130b957fe5b8360400151146130fe576040517f08c379a00000000000000000000000000000000000000000000000000000000081526004016130f59061496a565b60405180910390fd5b600160009054906101000a900473ffffffffffffffffffffffffffffffffffffffff1673ffffffffffffffffffffffffffffffffffffffff166314cfd6e98b8b8b898c8c6001600381111561314f57fe5b6040518863ffffffff1660e01b815260040161317197969594939291906147d8565b602060405180830381600087803b15801561318b57600080fd5b505af115801561319f573d6000803e3d6000fd5b505050506040513d601f19601f820116820180604052506131c3919081019061375f565b507f0299d04a77b985319ad1c515644fefc6dce93659db62ce6dc2c184421d603f728a8a8a896040516131f9949392919061478c565b60405180910390a150505050505050505050565b6040518060a00160405280600067ffffffffffffffff168152602001600073ffffffffffffffffffffffffffffffffffffffff1681526020016000815260200160008152602001600081525090565b6040518060e001604052806060815260200160008152602001600067ffffffffffffffff168152602001600077ffffffffffffffffffffffffffffffffffffffffffffffff168152602001600067ffffffffffffffff168152602001600073ffffffffffffffffffffffffffffffffffffffff168152602001600080191681525090565b6000813590506132ef81614eea565b92915050565b60008151905061330481614eea565b92915050565b60008151905061331981614f01565b92915050565b60008135905061332e81614f18565b92915050565b60008151905061334381614f18565b92915050565b60008151905061335881614f2f565b92915050565b60008083601f84011261337057600080fd5b8235905067ffffffffffffffff81111561338957600080fd5b6020830191508360018202830111156133a157600080fd5b9250929050565b600082601f8301126133b957600080fd5b81516133cc6133c782614c12565b614be5565b915080825260208301602083018583830111156133e857600080fd5b6133f3838284614e04565b50505092915050565b600060e0828403121561340e57600080fd5b61341860e0614be5565b9050600082015167ffffffffffffffff81111561343457600080fd5b613440848285016133a8565b60008301525060206134548482850161358b565b6020830152506040613468848285016135b5565b604083015250606061347c84828501613561565b6060830152506080613490848285016135b5565b60808301525060a06134a4848285016132f5565b60a08301525060c06134b884828501613334565b60c08301525092915050565b600060a082840312156134d657600080fd5b6134e060a0614be5565b905060006134f0848285016135b5565b6000830152506020613504848285016132f5565b60208301525060406135188482850161358b565b604083015250606061352c8482850161358b565b60608301525060806135408482850161358b565b60808301525092915050565b60008135905061355b81614f46565b92915050565b60008151905061357081614f46565b92915050565b60008135905061358581614f5d565b92915050565b60008151905061359a81614f5d565b92915050565b6000813590506135af81614f74565b92915050565b6000815190506135c481614f74565b92915050565b6000813590506135d981614f8b565b92915050565b6000602082840312156135f157600080fd5b60006135ff848285016132e0565b91505092915050565b6000806040838503121561361b57600080fd5b6000613629858286016132e0565b925050602061363a858286016132e0565b9150509250929050565b60008060008060008060c0878903121561365d57600080fd5b600061366b89828a016132e0565b965050602061367c89828a0161331f565b955050604061368d89828a01613576565b945050606061369e89828a016135ca565b93505060806136af89828a0161331f565b92505060a06136c089828a0161331f565b9150509295509295509295565b60008060008060008060a087890312156136e657600080fd5b60006136f489828a016132e0565b965050602087013567ffffffffffffffff81111561371157600080fd5b61371d89828a0161335e565b9550955050604061373089828a0161354c565b935050606061374189828a016135a0565b925050608061375289828a01613576565b9150509295509295509295565b60006020828403121561377157600080fd5b600061377f8482850161330a565b91505092915050565b6000806040838503121561379b57600080fd5b60006137a98582860161330a565b92505060206137ba858286016132f5565b9150509250929050565b6000602082840312156137d657600080fd5b60006137e48482850161331f565b91505092915050565b6000602082840312156137ff57600080fd5b600061380d84828501613334565b91505092915050565b60006020828403121561382857600080fd5b600061383684828501613349565b91505092915050565b60008060008060008060008060006101008a8c03121561385e57600080fd5b60008a013567ffffffffffffffff81111561387857600080fd5b6138848c828d0161335e565b995099505060206138978c828d0161354c565b97505060406138a88c828d016132e0565b96505060606138b98c828d016135a0565b95505060806138ca8c828d01613576565b94505060a06138db8c828d016135ca565b93505060c06138ec8c828d0161331f565b92505060e06138fd8c828d0161331f565b9150509295985092959850929598565b60008060008060006080868803121561392557600080fd5b600086013567ffffffffffffffff81111561393f57600080fd5b61394b8882890161335e565b9550955050602061395e8882890161354c565b935050604061396f888289016135a0565b925050606061398088828901613576565b9150509295509295909350565b60006020828403121561399f57600080fd5b600082015167ffffffffffffffff8111156139b957600080fd5b6139c5848285016133fc565b91505092915050565b600060a082840312156139e057600080fd5b60006139ee848285016134c4565b91505092915050565b600060208284031215613a0957600080fd5b6000613a178482850161358b565b91505092915050565b613a2981614d41565b82525050565b613a40613a3b82614c98565b614e37565b82525050565b613a4f81614c86565b82525050565b613a5e81614c86565b82525050565b613a6d81614cb6565b82525050565b613a84613a7f82614cb6565b614e49565b82525050565b6000613a9582614c3e565b613a9f8185614c5f565b9350613aaf818560208601614e04565b80840191505092915050565b613ac481614d53565b82525050565b613ad381614d77565b82525050565b613ae281614d9b565b82525050565b613af181614dbf565b82525050565b6000613b038385614c6a565b9350613b10838584614df5565b613b1983614ea5565b840190509392505050565b6000613b308385614c7b565b9350613b3d838584614df5565b82840190509392505050565b6000613b5482614c54565b613b5e8185614c6a565b9350613b6e818560208601614e04565b613b7781614ea5565b840191505092915050565b6000613b8d82614c49565b613b978185614c6a565b9350613ba7818560208601614e04565b613bb081614ea5565b840191505092915050565b6000613bc8601b83614c6a565b91507f455243323020746f6b656e207472616e73666572206661696c656400000000006000830152602082019050919050565b6000613c08600d83614c6a565b91507f6e6f7420746865206f776e6572000000000000000000000000000000000000006000830152602082019050919050565b6000613c48600c83614c6a565b91507f77726f6e67207369676e657200000000000000000000000000000000000000006000830152602082019050919050565b6000613c88601183614c6a565b91507f696e76616c6964207369676e61747572650000000000000000000000000000006000830152602082019050919050565b6000613cc8600d83614c6a565b91507f6e6f74207468652061646d696e000000000000000000000000000000000000006000830152602082019050919050565b6000613d08601583614c6a565b91507f7369676e657220616c726561647920696e2075736500000000000000000000006000830152602082019050919050565b6000613d48601083614c6a565b91507f6f6e6c7920696e203173742079656172000000000000000000000000000000006000830152602082019050919050565b6000613d88601a83614c6a565b91507f72657665616c436f6e76696374207374696c6c206c6f636b65640000000000006000830152602082019050919050565b6000613dc8601283614c6a565b91507f75726c20616c726561647920696e2075736500000000000000000000000000006000830152602082019050919050565b6000613e08601483614c6a565b91507f6465706f736974207374696c6c206c6f636b65640000000000000000000000006000830152602082019050919050565b6000613e48600f83614c6a565b91507f626c6f636b206e6f7420666f756e6400000000000000000000000000000000006000830152602082019050919050565b6000613e88601983614c6a565b91507f6e6f7420746865206f776e6572206f6620746865206e6f6465000000000000006000830152602082019050919050565b6000613ec8601283614c6a565b91507f6e6f7420656e6f756768206465706f73697400000000000000000000000000006000830152602082019050919050565b6000613f08600f83614c6a565b91507f307830206e6f7420616c6c6f77656400000000000000000000000000000000006000830152602082019050919050565b6000613f48603283614c6a565b91507f74686520626c6f636b20776173206e6f74207369676e6564206279207468652060008301527f7369676e6572206f6620746865206e6f646500000000000000000000000000006020830152604082019050919050565b6000613fae601883614c6a565b91507f30782061646472657373206e6f7420737570706f7274656400000000000000006000830152602082019050919050565b6000613fee600b83614c6a565b91507f77726f6e672073746167650000000000000000000000000000000000000000006000830152602082019050919050565b600061402e601783614c6a565b91507f4c696d6974206f662035302045544820726561636865640000000000000000006000830152602082019050919050565b600061406e602683614c6a565b91507f796f752074727920746f20636f6e766963742077697468206120636f7272656360008301527f74206861736800000000000000000000000000000000000000000000000000006020830152604082019050919050565b60006140d4600e83614c6a565b91507f6e6f2074696d656f7574207365740000000000000000000000000000000000006000830152602082019050919050565b6000614114601483614c6a565b91507f74696d656f7574206e6f7420796574206f7665720000000000000000000000006000830152602082019050919050565b6000614154601283614c6a565b91507f77726f6e6720636f6e76696374206861736800000000000000000000000000006000830152602082019050919050565b6000614194603083614c6a565b91507f6e6f742074686520636f7272656374207369676e6174757265206f662074686560008301527f207369676e65722070726f7669646564000000000000000000000000000000006020830152604082019050919050565b60006141fa600f83614c6a565b91507f77726f6e67207369676e617475726500000000000000000000000000000000006000830152602082019050919050565b60a08201600082015161424360008501826142f0565b5060208201516142566020850182613a46565b50604082015161426960408501826142bb565b50606082015161427c60608501826142bb565b50608082015161428f60808501826142bb565b50505050565b61429e81614cf2565b82525050565b6142b56142b082614cf2565b614e65565b82525050565b6142c481614d16565b82525050565b6142d381614d16565b82525050565b6142ea6142e582614d16565b614e77565b82525050565b6142f981614d20565b82525050565b61430881614d20565b82525050565b61431f61431a82614d20565b614e81565b82525050565b61432e81614d34565b82525050565b61434561434082614d34565b614e93565b82525050565b60006143578288613a73565b6020820191506143678287613a2f565b6014820191506143778286614334565b6001820191506143878285613a73565b6020820191506143978284613a73565b6020820191508190509695505050505050565b60006143b68286613a73565b6020820191506143c682856142d9565b6020820191506143d68284613a73565b602082019150819050949350505050565b60006143f38285613a8a565b91506143ff8284613a73565b6020820191508190509392505050565b600061441c828789613b24565b915061442882866142a4565b601882019150614438828561430e565b6008820191506144488284613a2f565b6014820191508190509695505050505050565b60006020820190506144706000830184613a55565b92915050565b600060608201905061448b6000830186613a20565b6144986020830185613a55565b6144a560408301846142ca565b949350505050565b60006040820190506144c26000830185613a20565b6144cf6020830184613a64565b9392505050565b60006040820190506144eb6000830185613a20565b6144f860208301846142ca565b9392505050565b60006040820190506145146000830185613a55565b6145216020830184613a55565b9392505050565b600060608201905061453d6000830186613a55565b61454a6020830185613a20565b6145576040830184613a55565b949350505050565b60006080820190506145746000830187613a55565b6145816020830186613a20565b61458e60408301856142ca565b61459b6060830184613a55565b95945050505050565b60006060820190506145b96000830186613a55565b6145c66020830185613a55565b6145d360408301846142ca565b949350505050565b60006040820190506145f06000830185613a55565b6145fd6020830184613ae8565b9392505050565b600060a0820190506146196000830189613a55565b818103602083015261462c818789613af7565b905061463b6040830186614295565b61464860608301856142ff565b61465560808301846142ca565b979650505050505050565b600060c0820190506146756000830185613a55565b614682602083018461422d565b9392505050565b600060408201905061469e6000830185613a55565b6146ab60208301846142ca565b9392505050565b60006020820190506146c76000830184613a64565b92915050565b60006040820190506146e26000830185613a64565b6146ef6020830184613a20565b9392505050565b600060808201905061470b6000830187613a64565b6147186020830186614325565b6147256040830185613a64565b6147326060830184613a64565b95945050505050565b60006020820190506147506000830184613abb565b92915050565b600060208201905061476b6000830184613aca565b92915050565b60006020820190506147866000830184613ad9565b92915050565b600060808201905081810360008301526147a68187613b49565b90506147b56020830186614295565b6147c26040830185613a55565b6147cf60608301846142ca565b95945050505050565b600060e08201905081810360008301526147f2818a613b49565b90506148016020830189614295565b61480e6040830188613a55565b61481b60608301876142ff565b6148286080830186613a55565b61483560a08301856142ca565b61484260c08301846142ca565b98975050505050505050565b600060408201905081810360008301526148688185613b82565b90506148776020830184613a55565b9392505050565b600060808201905081810360008301526148988187613b82565b90506148a76020830186614295565b6148b46040830185613a55565b6148c160608301846142ca565b95945050505050565b600060208201905081810360008301526148e381613bbb565b9050919050565b6000602082019050818103600083015261490381613bfb565b9050919050565b6000602082019050818103600083015261492381613c3b565b9050919050565b6000602082019050818103600083015261494381613c7b565b9050919050565b6000602082019050818103600083015261496381613cbb565b9050919050565b6000602082019050818103600083015261498381613cfb565b9050919050565b600060208201905081810360008301526149a381613d3b565b9050919050565b600060208201905081810360008301526149c381613d7b565b9050919050565b600060208201905081810360008301526149e381613dbb565b9050919050565b60006020820190508181036000830152614a0381613dfb565b9050919050565b60006020820190508181036000830152614a2381613e3b565b9050919050565b60006020820190508181036000830152614a4381613e7b565b9050919050565b60006020820190508181036000830152614a6381613ebb565b9050919050565b60006020820190508181036000830152614a8381613efb565b9050919050565b60006020820190508181036000830152614aa381613f3b565b9050919050565b60006020820190508181036000830152614ac381613fa1565b9050919050565b60006020820190508181036000830152614ae381613fe1565b9050919050565b60006020820190508181036000830152614b0381614021565b9050919050565b60006020820190508181036000830152614b2381614061565b9050919050565b60006020820190508181036000830152614b43816140c7565b9050919050565b60006020820190508181036000830152614b6381614107565b9050919050565b60006020820190508181036000830152614b8381614147565b9050919050565b60006020820190508181036000830152614ba381614187565b9050919050565b60006020820190508181036000830152614bc3816141ed565b9050919050565b6000602082019050614bdf60008301846142ca565b92915050565b6000604051905081810181811067ffffffffffffffff82111715614c0857600080fd5b8060405250919050565b600067ffffffffffffffff821115614c2957600080fd5b601f19601f8301169050602081019050919050565b600081519050919050565b600081519050919050565b600081519050919050565b600081905092915050565b600082825260208201905092915050565b600081905092915050565b6000614c9182614cd2565b9050919050565b6000614ca382614cd2565b9050919050565b60008115159050919050565b6000819050919050565b6000614ccb82614c86565b9050919050565b600073ffffffffffffffffffffffffffffffffffffffff82169050919050565b600077ffffffffffffffffffffffffffffffffffffffffffffffff82169050919050565b6000819050919050565b600067ffffffffffffffff82169050919050565b600060ff82169050919050565b6000614d4c82614dd1565b9050919050565b6000614d5e82614d65565b9050919050565b6000614d7082614cd2565b9050919050565b6000614d8282614d89565b9050919050565b6000614d9482614cd2565b9050919050565b6000614da682614dad565b9050919050565b6000614db882614cd2565b9050919050565b6000614dca82614d16565b9050919050565b6000614ddc82614de3565b9050919050565b6000614dee82614cd2565b9050919050565b82818337600083830152505050565b60005b83811015614e22578082015181840152602081019050614e07565b83811115614e31576000848401525b50505050565b6000614e4282614e53565b9050919050565b6000819050919050565b6000614e5e82614edd565b9050919050565b6000614e7082614ed0565b9050919050565b6000819050919050565b6000614e8c82614eb6565b9050919050565b6000614e9e82614ec3565b9050919050565b6000601f19601f8301169050919050565b60008160c01b9050919050565b60008160f81b9050919050565b60008160401b9050919050565b60008160601b9050919050565b614ef381614c86565b8114614efe57600080fd5b50565b614f0a81614caa565b8114614f1557600080fd5b50565b614f2181614cb6565b8114614f2c57600080fd5b50565b614f3881614cc0565b8114614f4357600080fd5b50565b614f4f81614cf2565b8114614f5a57600080fd5b50565b614f6681614d16565b8114614f7157600080fd5b50565b614f7d81614d20565b8114614f8857600080fd5b50565b614f9481614d34565b8114614f9f57600080fd5b5056fea365627a7a723158208d63bd068547b947bce06d4c8e33ce9c1aa49dc44c9cb3c84274deecb7c33e386c6578706572696d656e74616cf564736f6c63430005100040",
  "source": "/***********************************************************\r\n* This file is part of the Slock.it IoT Layer.             *\r\n* The Slock.it IoT Layer contains:                         *\r\n*   - USN (Universal Sharing Network)                      *\r\n*   - INCUBED (Trustless INcentivized remote Node Network) *\r\n************************************************************\r\n* Copyright (C) 2016 - 2018 Slock.it GmbH                  *\r\n* All Rights Reserved.                                     *\r\n************************************************************\r\n* You may use, distribute and modify this code under the   *\r\n* terms of the license contract you have concluded with    *\r\n* Slock.it GmbH.                                           *\r\n* For information about liability, maintenance etc. also   *\r\n* refer to the contract concluded with Slock.it GmbH.      *\r\n************************************************************\r\n* For more information, please refer to https://slock.it   *\r\n* For questions, please contact info@slock.it              *\r\n***********************************************************/\r\n\r\npragma solidity 0.5.16;\r\npragma experimental ABIEncoderV2;\r\n\r\nimport \"./BlockhashRegistry.sol\";\r\nimport \"./NodeRegistryData.sol\";\r\nimport \"./DappToken.sol\";\r\n\r\n\r\n/// @title Registry for IN3-nodes\r\ncontract NodeRegistryLogic {\r\n\r\n    /// node has been registered\r\n    event LogNodeRegistered(string url, uint192 props, address signer, uint deposit);\r\n\r\n    /// a node was convicted\r\n    event LogNodeConvicted(address signer);\r\n\r\n    /// a Node is removed\r\n    event LogNodeRemoved(string url, address signer);\r\n\r\n    /// a node has been updated\r\n    event LogNodeUpdated(string url, uint192 props, address signer, uint deposit);\r\n\r\n    /// the ownership of a node changed\r\n    event LogOwnershipChanged(address signer, address oldOwner, address newOwner);\r\n\r\n    /// a new logic contract got proposed\r\n    event LogNewPendingContract(address newPendingContract);\r\n\r\n    /// deposit has been returned\r\n    event LogDepositReturned(address signer, address owner, uint deposit, address erc20Token);\r\n\r\n    /// Different Stages a node can have\r\n    enum Stages {\r\n        NotInUse,                           /// node is not in use, so a new node with the same address can be registered\r\n        Active,                             /// node is active, so a new node with the same address cannot be registered\r\n        Convicted,                          /// node is convited, so he is inactive, but cannot be registered anymore\r\n        DepositNotWithdrawn                 /// node is not in use anymore, but still has some deposit stored within the contract\r\n    }\r\n\r\n    /// add your additional storage here. If you add information before this line you will break in3 nodelist\r\n    /// blockhash registry address\r\n    BlockhashRegistry public blockRegistry;\r\n\r\n    /// address for the data of the nodeRegistry\r\n    NodeRegistryData public nodeRegistryData;\r\n\r\n    /// timestamp until the unregisterKey is active\r\n    uint public timestampAdminKeyActive;\r\n\r\n    /// admin-key to remove some server, only usable within the 1st year\r\n    address public adminKey;\r\n\r\n    /// timestamp when an update of the logic-contract can be applied\r\n    uint public updateTimeout;\r\n\r\n    /// address of an updated logic contract to be applied\r\n    address public pendingNewLogic;\r\n\r\n    /// capping the max deposit timeout on 1 year\r\n    uint constant internal YEAR_DEFINITION = 1 days * 365;\r\n\r\n    /// limit for ether per node in the 1st year\r\n    uint public maxDepositFirstYear;\r\n\r\n    /// min deposit required for registering a node\r\n    uint public minDeposit;\r\n\r\n    /// version: major minor fork(000) date(yyyy/mm/dd)\r\n    uint constant public VERSION = 12300020190709;\r\n\r\n    modifier onlyAdmin {\r\n        require(msg.sender == adminKey, \"not the admin\");\r\n        _;\r\n    }\r\n\r\n    /// @notice constructor\r\n    /// @param _blockRegistry address of a BlockhashRegistry-contract\r\n    /// @param _nodeRegistryData address of the nodeRegistryData-contract\r\n    /// @dev cannot be deployed in a genesis block\r\n    constructor(BlockhashRegistry _blockRegistry, NodeRegistryData _nodeRegistryData, uint _minDeposit) public {\r\n\r\n        require(address(_blockRegistry) != address(0x0), \"no blockRegistry address provided\");\r\n        blockRegistry = _blockRegistry;\r\n\r\n        // solium-disable-next-line security/no-block-members\r\n        timestampAdminKeyActive = block.timestamp + YEAR_DEFINITION;  // solhint-disable-line not-rely-on-time\r\n        adminKey = msg.sender;\r\n        require(address(_nodeRegistryData) != address(0x0), \"no nodeRegistry address provided\");\r\n        nodeRegistryData = _nodeRegistryData;\r\n\r\n        minDeposit = _minDeposit;\r\n        maxDepositFirstYear = 2000 * minDeposit;\r\n    }\r\n\r\n    /// @notice applies the pending update\r\n    /// @dev this will remove the current contract as owner of the NodeRegistryData\r\n    /// @dev only callable after 47 since the new logicContract has been registered\r\n    function activateNewLogic() external {\r\n        require(updateTimeout != 0, \"no timeout set\");\r\n        // solium-disable-next-line security/no-block-members\r\n        require(block.timestamp > updateTimeout, \"timeout not yet over\"); // solhint-disable-line not-rely-on-time\r\n\r\n        nodeRegistryData.adminSetLogic(pendingNewLogic);\r\n    }\r\n\r\n    /// @notice removes an in3-server from the registry\r\n    /// @param _signer the signer-address of the in3-node\r\n    /// @dev only callable by the adminKey-account\r\n    /// @dev only callable in the 1st year after deployment\r\n    function adminRemoveNodeFromRegistry(address _signer)\r\n        external\r\n        onlyAdmin\r\n    {\r\n        // solium-disable-next-line security/no-block-members\r\n        require(block.timestamp <= timestampAdminKeyActive, \"only in 1st year\"); // solhint-disable-line not-rely-on-time\r\n\r\n        NodeRegistryData.SignerInformation memory si = nodeRegistryData.getSignerInformation(_signer);\r\n        require(si.stage == uint(Stages.Active), \"wrong stage\");\r\n        NodeRegistryData.In3Node memory in3Node = nodeRegistryData.getIn3NodeInformation(si.index);\r\n\r\n        nodeRegistryData.unregisteringNode(_signer);\r\n        nodeRegistryData.adminSetStage(_signer, uint(Stages.DepositNotWithdrawn));\r\n\r\n        emit LogNodeRemoved(in3Node.url, _signer);\r\n\r\n    }\r\n\r\n    /// @notice sets the address for a new (pending) logic\r\n    ///         the update can only be applied after 47 days,\r\n    ///         giving all the nodes enough time to unregister their node if they dislike the update\r\n    /// @dev only callable by the owner of the contract\r\n    /// @param _newLogic the address of the new logic contract\r\n    function adminUpdateLogic(address _newLogic) external onlyAdmin {\r\n        require(_newLogic != address(0x0), \"0x address not supported\");\r\n\r\n        // solium-disable-next-line security/no-block-members\r\n        updateTimeout = block.timestamp + 47 days; // solhint-disable-line not-rely-on-time\r\n        pendingNewLogic = _newLogic;\r\n\r\n        emit LogNewPendingContract(_newLogic);\r\n    }\r\n\r\n    /// @notice commits a blocknumber and a hash\r\n    /// @notice must be called before revealConvict\r\n    /// @param _hash keccak256(wrong blockhash, msg.sender, v, r, s); used to prevent frontrunning.\r\n    /// @dev The v,r,s paramaters are from the signature of the wrong blockhash that the node provided\r\n    function convict(bytes32 _hash) external {\r\n        nodeRegistryData.setConvict(_hash, msg.sender);\r\n    }\r\n\r\n    /// @notice register a new node with the sender as owner\r\n    /// @dev the supported tokens have to be approved by the owner first\r\n    /// @param _url the url of the node, has to be unique\r\n    /// @param _props properties of the node\r\n    /// @param _weight how many requests per second the node is able to handle\r\n    /// @param _deposit the deposit in erc20 tokens\r\n    function registerNode(\r\n        string calldata _url,\r\n        uint192 _props,\r\n        uint64 _weight,\r\n        uint _deposit\r\n    )\r\n        external\r\n    {\r\n\r\n        _registerNodeInternal(\r\n            _url,\r\n            _props,\r\n            msg.sender,\r\n            msg.sender,\r\n            _deposit,\r\n            _weight\r\n        );\r\n    }\r\n\r\n    /// @notice register a new node as a owner using a different signer address\r\n    /// @dev the supported tokens have to be approved by the owner first\r\n    /// @param _url the url of the node, has to be unique\r\n    /// @param _props properties of the node\r\n    /// @param _signer the signer of the in3-node\r\n    /// @param _weight how many requests per second the node is able to handle\r\n    /// @param _depositAmount deposit in erc20 tokens\r\n    /// @param _v v of the signed message\r\n    /// @param _r r of the signed message\r\n    /// @param _s s of the signed message\r\n    /// @dev will call the registerNodeInteral function\r\n    /// @dev in order to prove that the owner has controll over the signer-address he has to sign a message\r\n    /// @dev which is calculated by the hash of the url, properties, weight and the owner\r\n    /// @dev will revert when a wrong signature has been provided\r\n    function registerNodeFor(\r\n        string calldata _url,\r\n        uint192 _props,\r\n        address _signer,\r\n        uint64 _weight,\r\n        uint _depositAmount,\r\n        uint8 _v,\r\n        bytes32 _r,\r\n        bytes32 _s\r\n    )\r\n        external\r\n    {\r\n\r\n        bytes memory prefix = \"\\x19Ethereum Signed Message:\\n32\";\r\n        bytes32 tempHash = keccak256(\r\n            abi.encodePacked(\r\n                _url,\r\n                _props,\r\n                _weight,\r\n                msg.sender\r\n            )\r\n        );\r\n        bytes32 prefixedHash = keccak256(abi.encodePacked(prefix, tempHash));\r\n\r\n        require(_v == 27 || _v == 28, \"invalid signature\");\r\n\r\n        address signer = ecrecover(\r\n            prefixedHash,\r\n            _v,\r\n            _r,\r\n            _s\r\n        );\r\n\r\n        require(_signer == signer, \"not the correct signature of the signer provided\");\r\n\r\n        _registerNodeInternal(\r\n            _url,\r\n            _props,\r\n            _signer,\r\n            msg.sender,\r\n            _depositAmount,\r\n            _weight\r\n        );\r\n    }\r\n\r\n    /// @notice returns the deposit of a former node after the timeout has passed\r\n    /// @dev only callable by the owner of the former signer\r\n    /// @param _signer the former signer\r\n    function returnDeposit(address _signer) external {\r\n        NodeRegistryData.SignerInformation memory si = nodeRegistryData.getSignerInformation(_signer);\r\n        require(si.owner == msg.sender, \"not the owner of the node\");\r\n        require(si.stage == uint(Stages.DepositNotWithdrawn), \"wrong stage\");\r\n        // solium-disable-next-line security/no-block-members\r\n        require(si.lockedTime <= block.timestamp, \"deposit still locked\"); // solhint-disable-line not-rely-on-time\r\n\r\n        uint depositAmount = si.depositAmount;\r\n\r\n        si.lockedTime = 0;\r\n        si.owner = address(0x0);\r\n        si.stage = 0;\r\n        si.depositAmount = 0;\r\n        si.index = 0;\r\n\r\n        nodeRegistryData.adminSetSignerInfo(_signer, si);\r\n        nodeRegistryData.adminTransferDeposit(msg.sender, depositAmount);\r\n\r\n        emit LogDepositReturned(\r\n            _signer,\r\n            msg.sender,\r\n            depositAmount,\r\n            address(nodeRegistryData.supportedToken())\r\n        );\r\n    }\r\n\r\n    /// @notice reveals the wrongly provided blockhash, so that the node-owner will lose its deposit\r\n    /// @param _signer the address that signed the wrong blockhash\r\n    /// @param _blockhash the wrongly provided blockhash\r\n    /// @param _blockNumber number of the wrongly provided blockhash\r\n    /// @param _v v of the signature\r\n    /// @param _r r of the signature\r\n    /// @param _s s of the signature\r\n    /// @dev reverts if a block with that number cannot be found in either the latest 256 blocks or the blockhash registry\r\n    /// @dev reverts when tryin to convict someone with a correct blockhash\r\n    /// @dev reverts when trying to reveal immediately after calling convict\r\n    /// @dev reverts when the _signer did not sign the block\r\n    /// @dev reverts when the wrong convict hash (see convict-function) is used\r\n    function revealConvict(\r\n        address _signer,\r\n        bytes32 _blockhash,\r\n        uint _blockNumber,\r\n        uint8 _v,\r\n        bytes32 _r,\r\n        bytes32 _s\r\n    )\r\n        external\r\n    {\r\n        require(_v == 27 || _v == 28, \"wrong signature\");\r\n\r\n        // solium-disable-next-line security/no-block-members\r\n        bytes32 evmBlockhash = blockhash(_blockNumber);\r\n\r\n        if (evmBlockhash == 0x0) {\r\n            evmBlockhash = blockRegistry.blockhashMapping(_blockNumber);\r\n        }\r\n\r\n        require(evmBlockhash != 0x0, \"block not found\");\r\n\r\n        // if the blockhash is correct you cannot convict the node\r\n        require(evmBlockhash != _blockhash, \"you try to convict with a correct hash\");\r\n\r\n        bytes32 wrongBlockHashIdent = keccak256(\r\n            abi.encodePacked(\r\n                _blockhash, msg.sender, _v, _r, _s\r\n            )\r\n        );\r\n\r\n        uint convictBlockNumber = nodeRegistryData.convictMapping(msg.sender, wrongBlockHashIdent);\r\n        // as we cannot deploy the contract at block 0, a convicting at block 0 is also impossible\r\n        // and as 0 is the standard value this also means that the convict hash is also wrong\r\n        require(convictBlockNumber != 0, \"wrong convict hash\");\r\n\r\n        require(block.number > convictBlockNumber + 2, \"revealConvict still locked\");\r\n        require(\r\n            ecrecover(\r\n                keccak256(\r\n                    abi.encodePacked(\r\n                        _blockhash,\r\n                        _blockNumber,\r\n                        nodeRegistryData.registryId()\r\n                    )\r\n                ),\r\n                _v, _r, _s) == _signer,\r\n            \"the block was not signed by the signer of the node\");\r\n        NodeRegistryData.SignerInformation memory si = nodeRegistryData.getSignerInformation(_signer);\r\n        require(si.stage == uint(Stages.Active) || si.stage == uint(Stages.DepositNotWithdrawn), \"wrong stage\");\r\n\r\n        uint deposit = 0;\r\n        if (si.stage == uint(Stages.Active)) {\r\n            NodeRegistryData.In3Node memory in3Node = nodeRegistryData.getNodeInfromationBySigner(_signer);\r\n            deposit = in3Node.deposit;\r\n            nodeRegistryData.adminSetNodeDeposit(_signer, 0);\r\n            nodeRegistryData.adminRemoveNodeFromRegistry(_signer);\r\n            nodeRegistryData.adminSetStage(_signer, uint(Stages.Convicted));\r\n            emit LogNodeRemoved(in3Node.url, _signer);\r\n\r\n        } else {\r\n            deposit = si.depositAmount;\r\n\r\n            si.stage = uint(Stages.Convicted);\r\n            si.depositAmount = 0;\r\n            nodeRegistryData.adminSetSignerInfo(_signer, si);\r\n        }\r\n\r\n        nodeRegistryData.adminTransferDeposit(msg.sender, deposit/2);\r\n        emit LogNodeConvicted(_signer);\r\n\r\n    }\r\n\r\n    /// @notice changes the ownership of an in3-node\r\n    /// @param _signer the signer-address of the in3-node, used as an identifier\r\n    /// @param _newOwner the new owner\r\n    /// @dev reverts when trying to change ownership of an inactive node\r\n    /// @dev reverts when trying to pass ownership to 0x0\r\n    /// @dev reverts when the sender is not the current owner\r\n    function transferOwnership(address _signer, address _newOwner)\r\n        external\r\n    {\r\n        require(_newOwner != address(0x0), \"0x0 not allowed\");\r\n        NodeRegistryData.SignerInformation memory si = nodeRegistryData.getSignerInformation(_signer);\r\n        require(si.stage == uint(Stages.Active), \"wrong stage\");\r\n        require(si.owner == msg.sender, \"not the owner\");\r\n\r\n        NodeRegistryData.In3Node memory in3Node = nodeRegistryData.getIn3NodeInformation(si.index);\r\n        require(in3Node.signer == _signer, \"wrong signer\");\r\n\r\n        nodeRegistryData.transferOwnership(_signer, _newOwner);\r\n\r\n        emit LogOwnershipChanged(_signer, msg.sender, _newOwner);\r\n    }\r\n\r\n    /// @notice a node owner can unregister a node, removing it from the nodeList\r\n    /// @notice doing so will also lock his deposit for the timeout of the node\r\n    /// @param _signer the signer of the in3-node\r\n    /// @dev reverts when the provided address is not an in3-signer\r\n    /// @dev reverts when not called by the owner of the node\r\n    /// @dev reverts when the node is not active\r\n    function unregisteringNode(address _signer)\r\n        external\r\n    {\r\n        NodeRegistryData.SignerInformation memory si = nodeRegistryData.getSignerInformation(_signer);\r\n        require(si.stage == uint(Stages.Active), \"wrong stage\");\r\n        require(si.owner == msg.sender, \"not the owner\");\r\n\r\n        NodeRegistryData.In3Node memory in3Node = nodeRegistryData.getIn3NodeInformation(si.index);\r\n        require(in3Node.signer == _signer, \"wrong signer\");\r\n\r\n        nodeRegistryData.unregisteringNode(_signer);\r\n\r\n        nodeRegistryData.adminSetStage(_signer, uint(Stages.DepositNotWithdrawn));\r\n\r\n        emit LogNodeRemoved(in3Node.url, _signer);\r\n\r\n    }\r\n\r\n    /// @notice updates a node by changing its props\r\n    /// @dev if there is an additional deposit the owner has to approve the tokenTransfer before\r\n    /// @param _signer the signer-address of the in3-node, used as an identifier\r\n    /// @param _url the url, will be changed if different from the current one\r\n    /// @param _props the new properties, will be changed if different from the current onec\r\n    /// @param _weight the amount of requests per second the node is able to handle\r\n    /// @param _additionalDeposit the additional deposit in erc20-token\r\n    /// @dev reverts when the sender is not the owner of the node\r\n    /// @dev reverts when the signer does not own a node\r\n    /// @dev reverts when trying to change the url to an already existing one\r\n    function updateNode(\r\n        address _signer,\r\n        string calldata _url,\r\n        uint192 _props,\r\n        uint64 _weight,\r\n        uint _additionalDeposit\r\n    )\r\n        external\r\n    {\r\n\r\n        NodeRegistryData.SignerInformation memory si = nodeRegistryData.getSignerInformation(_signer);\r\n        require(si.stage == uint(Stages.Active), \"wrong stage\");\r\n        require(si.owner == msg.sender, \"not the owner\");\r\n\r\n        NodeRegistryData.In3Node memory node = nodeRegistryData.getNodeInfromationBySigner(_signer);\r\n        require(node.signer == _signer, \"wrong signer\");\r\n\r\n        uint deposit = node.deposit;\r\n        _checkNodePropertiesInternal(deposit);\r\n\r\n        if (_additionalDeposit > 0) {\r\n            DappToken supportedToken = nodeRegistryData.supportedToken();\r\n            require(supportedToken.transferFrom(msg.sender, address(nodeRegistryData), _additionalDeposit), \"ERC20 token transfer failed\");\r\n            deposit += _additionalDeposit;\r\n        }\r\n\r\n        nodeRegistryData.updateNode(\r\n            _signer,\r\n            _url,\r\n            _props,\r\n            _weight,\r\n            deposit\r\n        );\r\n\r\n        emit LogNodeUpdated(\r\n            node.url,\r\n            _props,\r\n            _signer,\r\n            deposit\r\n        );\r\n    }\r\n\r\n    /// @notice returns the supported ERC20 token for registering a node\r\n    /// @return the supported ERC20 token\r\n    function supportedToken() external view returns (DappToken) {\r\n        return nodeRegistryData.supportedToken();\r\n    }\r\n\r\n    /// @notice length of the nodelist\r\n    /// @return the number of total in3-nodes\r\n    function totalNodes() external view returns (uint) {\r\n        return nodeRegistryData.totalNodes();\r\n    }\r\n\r\n    /// @notice function to check whether the allowed amount of deposit per server has been reached\r\n    /// @param _deposit the new amount of deposit a server has\r\n    /// @dev will fail when the deposit is greater than the maxDepositFirstYear in the 1st year\r\n    /// @dev will fail when the deposit is less than the minDeposit\r\n    function _checkNodePropertiesInternal(uint256 _deposit) internal view {\r\n\r\n        require(_deposit >= minDeposit, \"not enough deposit\");\r\n\r\n        // solium-disable-next-line security/no-block-members\r\n        if (block.timestamp < timestampAdminKeyActive) { // solhint-disable-line not-rely-on-time\r\n            require(_deposit < maxDepositFirstYear, \"Limit of 50 ETH reached\");\r\n        }\r\n    }\r\n\r\n    /// @notice helper function for registering a node\r\n    /// @param _url the url of the node\r\n    /// @param _props the properties of the node\r\n    /// @param _signer the signer of the node\r\n    /// @param _owner the owner of the node\r\n    /// @param _deposit the deposit of the node\r\n    /// @param _weight the weight of the node (# of requests per second he is able to handle)\r\n    function _registerNodeInternal (\r\n        string memory _url,\r\n        uint192 _props,\r\n        address _signer,\r\n        address _owner,\r\n        uint _deposit,\r\n        uint64 _weight\r\n    )\r\n        internal\r\n    {\r\n        _checkNodePropertiesInternal(_deposit);\r\n\r\n        DappToken supportedERC20Token = nodeRegistryData.supportedToken();\r\n\r\n        require(supportedERC20Token.transferFrom(_owner, address(nodeRegistryData), _deposit), \"ERC20 token transfer failed\");\r\n\r\n        NodeRegistryData.SignerInformation memory si = nodeRegistryData.getSignerInformation(_signer);\r\n        bytes32 urlHash = keccak256(bytes(_url));\r\n\r\n        (bool _used,) = nodeRegistryData.urlIndex(urlHash);\r\n\r\n        require(!_used, \"url already in use\");\r\n\r\n        require(si.stage == uint(Stages.NotInUse), \"signer already in use\");\r\n\r\n        nodeRegistryData.registerNodeFor(\r\n            _url,\r\n            _props,\r\n            _signer,\r\n            _weight,\r\n            _owner,\r\n            _deposit,\r\n            uint(Stages.Active)\r\n        );\r\n\r\n        emit LogNodeRegistered(\r\n            _url,\r\n            _props,\r\n            _signer,\r\n            _deposit\r\n        );\r\n\r\n    }\r\n\r\n}",
  "sourcePath": "C:/Users/markm/Documents/in3_stake_app/src/contracts/NodeRegistryLogic.sol",
  "compiler": {
    "name": "solc",
    "version": "0.5.16+commit.9c3226ce.Emscripten.clang"
  },
  "schemaVersion": "3.2.3",
  "updatedAt": "2020-10-29T22:06:54.515Z",
  "devdoc": {
    "methods": {
      "activateNewLogic()": {
        "details": "this will remove the current contract as owner of the NodeRegistryDataonly callable after 47 since the new logicContract has been registered"
      },
      "adminRemoveNodeFromRegistry(address)": {
        "details": "only callable by the adminKey-accountonly callable in the 1st year after deployment",
        "params": {
          "_signer": "the signer-address of the in3-node"
        }
      },
      "adminUpdateLogic(address)": {
        "details": "only callable by the owner of the contract",
        "params": {
          "_newLogic": "the address of the new logic contract"
        }
      },
      "constructor": {
        "details": "cannot be deployed in a genesis block",
        "params": {
          "_blockRegistry": "address of a BlockhashRegistry-contract",
          "_nodeRegistryData": "address of the nodeRegistryData-contract"
        }
      },
      "convict(bytes32)": {
        "details": "The v,r,s paramaters are from the signature of the wrong blockhash that the node provided",
        "params": {
          "_hash": "keccak256(wrong blockhash, msg.sender, v, r, s); used to prevent frontrunning."
        }
      },
      "registerNode(string,uint192,uint64,uint256)": {
        "details": "the supported tokens have to be approved by the owner first",
        "params": {
          "_deposit": "the deposit in erc20 tokens",
          "_props": "properties of the node",
          "_url": "the url of the node, has to be unique",
          "_weight": "how many requests per second the node is able to handle"
        }
      },
      "registerNodeFor(string,uint192,address,uint64,uint256,uint8,bytes32,bytes32)": {
        "details": "the supported tokens have to be approved by the owner firstwill call the registerNodeInteral functionin order to prove that the owner has controll over the signer-address he has to sign a messagewhich is calculated by the hash of the url, properties, weight and the ownerwill revert when a wrong signature has been provided",
        "params": {
          "_depositAmount": "deposit in erc20 tokens",
          "_props": "properties of the node",
          "_r": "r of the signed message",
          "_s": "s of the signed message",
          "_signer": "the signer of the in3-node",
          "_url": "the url of the node, has to be unique",
          "_v": "v of the signed message",
          "_weight": "how many requests per second the node is able to handle"
        }
      },
      "returnDeposit(address)": {
        "details": "only callable by the owner of the former signer",
        "params": {
          "_signer": "the former signer"
        }
      },
      "revealConvict(address,bytes32,uint256,uint8,bytes32,bytes32)": {
        "details": "reverts if a block with that number cannot be found in either the latest 256 blocks or the blockhash registryreverts when tryin to convict someone with a correct blockhashreverts when trying to reveal immediately after calling convictreverts when the _signer did not sign the blockreverts when the wrong convict hash (see convict-function) is used",
        "params": {
          "_blockNumber": "number of the wrongly provided blockhash",
          "_blockhash": "the wrongly provided blockhash",
          "_r": "r of the signature",
          "_s": "s of the signature",
          "_signer": "the address that signed the wrong blockhash",
          "_v": "v of the signature"
        }
      },
      "supportedToken()": {
        "return": "the supported ERC20 token"
      },
      "totalNodes()": {
        "return": "the number of total in3-nodes"
      },
      "transferOwnership(address,address)": {
        "details": "reverts when trying to change ownership of an inactive nodereverts when trying to pass ownership to 0x0reverts when the sender is not the current owner",
        "params": {
          "_newOwner": "the new owner",
          "_signer": "the signer-address of the in3-node, used as an identifier"
        }
      },
      "unregisteringNode(address)": {
        "details": "reverts when the provided address is not an in3-signerreverts when not called by the owner of the nodereverts when the node is not active",
        "params": {
          "_signer": "the signer of the in3-node"
        }
      },
      "updateNode(address,string,uint192,uint64,uint256)": {
        "details": "if there is an additional deposit the owner has to approve the tokenTransfer beforereverts when the sender is not the owner of the nodereverts when the signer does not own a nodereverts when trying to change the url to an already existing one",
        "params": {
          "_additionalDeposit": "the additional deposit in erc20-token",
          "_props": "the new properties, will be changed if different from the current onec",
          "_signer": "the signer-address of the in3-node, used as an identifier",
          "_url": "the url, will be changed if different from the current one",
          "_weight": "the amount of requests per second the node is able to handle"
        }
      }
    },
    "title": "Registry for IN3-nodes"
  },
  "userdoc": {
    "methods": {
      "activateNewLogic()": {
        "notice": "applies the pending update"
      },
      "adminRemoveNodeFromRegistry(address)": {
        "notice": "removes an in3-server from the registry"
      },
      "adminUpdateLogic(address)": {
        "notice": "sets the address for a new (pending) logic         the update can only be applied after 47 days,         giving all the nodes enough time to unregister their node if they dislike the update"
      },
      "constructor": "constructor",
      "convict(bytes32)": {
        "notice": "commits a blocknumber and a hashmust be called before revealConvict"
      },
      "registerNode(string,uint192,uint64,uint256)": {
        "notice": "register a new node with the sender as owner"
      },
      "registerNodeFor(string,uint192,address,uint64,uint256,uint8,bytes32,bytes32)": {
        "notice": "register a new node as a owner using a different signer address"
      },
      "returnDeposit(address)": {
        "notice": "returns the deposit of a former node after the timeout has passed"
      },
      "revealConvict(address,bytes32,uint256,uint8,bytes32,bytes32)": {
        "notice": "reveals the wrongly provided blockhash, so that the node-owner will lose its deposit"
      },
      "supportedToken()": {
        "notice": "returns the supported ERC20 token for registering a node"
      },
      "totalNodes()": {
        "notice": "length of the nodelist"
      },
      "transferOwnership(address,address)": {
        "notice": "changes the ownership of an in3-node"
      },
      "unregisteringNode(address)": {
        "notice": "a node owner can unregister a node, removing it from the nodeListdoing so will also lock his deposit for the timeout of the node"
      },
      "updateNode(address,string,uint192,uint64,uint256)": {
        "notice": "updates a node by changing its props"
      }
    }
  }
}